{
	"contracts/FundMe.sol": {
		"FundMe": {
			"abi": [
				{
					"inputs": [],
					"name": "fund",
					"outputs": [],
					"stateMutability": "payable",
					"type": "function"
				},
				{
					"inputs": [],
					"name": "getConversionRate",
					"outputs": [],
					"stateMutability": "nonpayable",
					"type": "function"
				},
				{
					"inputs": [],
					"name": "getprice",
					"outputs": [
						{
							"internalType": "uint256",
							"name": "",
							"type": "uint256"
						}
					],
					"stateMutability": "view",
					"type": "function"
				},
				{
					"inputs": [],
					"name": "minUsd",
					"outputs": [
						{
							"internalType": "uint256",
							"name": "",
							"type": "uint256"
						}
					],
					"stateMutability": "view",
					"type": "function"
				}
			],
			"devdoc": {
				"kind": "dev",
				"methods": {},
				"version": 1
			},
			"evm": {
				"assembly": "    /* \"contracts/FundMe.sol\":252:1129  contract FundMe{... */\n  mstore(0x40, 0x80)\n    /* \"contracts/FundMe.sol\":297:298  5 */\n  0x05\n    /* \"contracts/FundMe.sol\":273:298  uint256 public minUsd = 5 */\n  0x00\n  sstore\n    /* \"contracts/FundMe.sol\":252:1129  contract FundMe{... */\n  callvalue\n  dup1\n  iszero\n  tag_1\n  jumpi\n  0x00\n  dup1\n  revert\ntag_1:\n  pop\n  dataSize(sub_0)\n  dup1\n  dataOffset(sub_0)\n  0x00\n  codecopy\n  0x00\n  return\nstop\n\nsub_0: assembly {\n        /* \"contracts/FundMe.sol\":252:1129  contract FundMe{... */\n      mstore(0x40, 0x80)\n      jumpi(tag_1, lt(calldatasize, 0x04))\n      shr(0xe0, calldataload(0x00))\n      dup1\n      0x0fcb5984\n      eq\n      tag_2\n      jumpi\n      dup1\n      0x51b80e41\n      eq\n      tag_3\n      jumpi\n      dup1\n      0xb60d4288\n      eq\n      tag_4\n      jumpi\n      dup1\n      0xf36089ec\n      eq\n      tag_5\n      jumpi\n    tag_1:\n      0x00\n      dup1\n      revert\n        /* \"contracts/FundMe.sol\":619:1083  function getprice() public view returns (uint256){ ... */\n    tag_2:\n      callvalue\n      dup1\n      iszero\n      tag_6\n      jumpi\n      0x00\n      dup1\n      revert\n    tag_6:\n      pop\n      tag_7\n      tag_8\n      jump\t// in\n    tag_7:\n      mload(0x40)\n      tag_9\n      swap2\n      swap1\n      tag_10\n      jump\t// in\n    tag_9:\n      mload(0x40)\n      dup1\n      swap2\n      sub\n      swap1\n      return\n        /* \"contracts/FundMe.sol\":273:298  uint256 public minUsd = 5 */\n    tag_3:\n      callvalue\n      dup1\n      iszero\n      tag_11\n      jumpi\n      0x00\n      dup1\n      revert\n    tag_11:\n      pop\n      tag_12\n      tag_13\n      jump\t// in\n    tag_12:\n      mload(0x40)\n      tag_14\n      swap2\n      swap1\n      tag_10\n      jump\t// in\n    tag_14:\n      mload(0x40)\n      dup1\n      swap2\n      sub\n      swap1\n      return\n        /* \"contracts/FundMe.sol\":304:568  function fund() public payable {... */\n    tag_4:\n      tag_15\n      tag_16\n      jump\t// in\n    tag_15:\n      stop\n        /* \"contracts/FundMe.sol\":1088:1126  function getConversionRate() public {} */\n    tag_5:\n      callvalue\n      dup1\n      iszero\n      tag_17\n      jumpi\n      0x00\n      dup1\n      revert\n    tag_17:\n      pop\n      tag_18\n      tag_19\n      jump\t// in\n    tag_18:\n      stop\n        /* \"contracts/FundMe.sol\":619:1083  function getprice() public view returns (uint256){ ... */\n    tag_8:\n        /* \"contracts/FundMe.sol\":660:667  uint256 */\n      0x00\n        /* \"contracts/FundMe.sol\":711:742  AggregatorV3Interface priceFeed */\n      dup1\n        /* \"contracts/FundMe.sol\":767:809  0x694AA1769357215DE4FAC081bf1f309aDC325306 */\n      0x694aa1769357215de4fac081bf1f309adc325306\n        /* \"contracts/FundMe.sol\":711:810  AggregatorV3Interface priceFeed = AggregatorV3Interface(0x694AA1769357215DE4FAC081bf1f309aDC325306) */\n      swap1\n      pop\n        /* \"contracts/FundMe.sol\":849:858  int price */\n      0x00\n        /* \"contracts/FundMe.sol\":955:964  priceFeed */\n      dup2\n        /* \"contracts/FundMe.sol\":955:980  priceFeed.latestRoundData */\n      0xffffffffffffffffffffffffffffffffffffffff\n      and\n      0xfeaf968c\n        /* \"contracts/FundMe.sol\":955:982  priceFeed.latestRoundData() */\n      mload(0x40)\n      dup2\n      0xffffffff\n      and\n      0xe0\n      shl\n      dup2\n      mstore\n      0x04\n      add\n      0xa0\n      mload(0x40)\n      dup1\n      dup4\n      sub\n      dup2\n      dup7\n      gas\n      staticcall\n      iszero\n      dup1\n      iszero\n      tag_22\n      jumpi\n      returndatasize\n      0x00\n      dup1\n      returndatacopy\n      revert(0x00, returndatasize)\n    tag_22:\n      pop\n      pop\n      pop\n      pop\n      mload(0x40)\n      returndatasize\n      not(0x1f)\n      0x1f\n      dup3\n      add\n      and\n      dup3\n      add\n      dup1\n      0x40\n      mstore\n      pop\n      dup2\n      add\n      swap1\n      tag_23\n      swap2\n      swap1\n      tag_24\n      jump\t// in\n    tag_23:\n        /* \"contracts/FundMe.sol\":820:982  (/*uint80 roundId*/,... */\n      pop\n      pop\n      pop\n      swap2\n      pop\n      pop\n        /* \"contracts/FundMe.sol\":1071:1075  1e18 */\n      0x0de0b6b3a7640000\n        /* \"contracts/FundMe.sol\":1063:1068  price */\n      dup2\n        /* \"contracts/FundMe.sol\":1063:1075  price * 1e18 */\n      tag_25\n      swap2\n      swap1\n      tag_26\n      jump\t// in\n    tag_25:\n        /* \"contracts/FundMe.sol\":1048:1076  return uint256(price * 1e18) */\n      swap3\n      pop\n      pop\n      pop\n        /* \"contracts/FundMe.sol\":619:1083  function getprice() public view returns (uint256){ ... */\n      swap1\n      jump\t// out\n        /* \"contracts/FundMe.sol\":273:298  uint256 public minUsd = 5 */\n    tag_13:\n      sload(0x00)\n      dup2\n      jump\t// out\n        /* \"contracts/FundMe.sol\":304:568  function fund() public payable {... */\n    tag_16:\n        /* \"contracts/FundMe.sol\":476:482  minUsd */\n      sload(0x00)\n        /* \"contracts/FundMe.sol\":464:473  msg.value */\n      callvalue\n        /* \"contracts/FundMe.sol\":464:482  msg.value > minUsd */\n      gt\n        /* \"contracts/FundMe.sol\":456:509  require(msg.value > minUsd , \"didnt send enough eth\") */\n      tag_28\n      jumpi\n      mload(0x40)\n      0x08c379a000000000000000000000000000000000000000000000000000000000\n      dup2\n      mstore\n      0x04\n      add\n      tag_29\n      swap1\n      tag_30\n      jump\t// in\n    tag_29:\n      mload(0x40)\n      dup1\n      swap2\n      sub\n      swap1\n      revert\n    tag_28:\n        /* \"contracts/FundMe.sol\":304:568  function fund() public payable {... */\n      jump\t// out\n        /* \"contracts/FundMe.sol\":1088:1126  function getConversionRate() public {} */\n    tag_19:\n      jump\t// out\n        /* \"#utility.yul\":7:84   */\n    tag_32:\n        /* \"#utility.yul\":44:51   */\n      0x00\n        /* \"#utility.yul\":73:78   */\n      dup2\n        /* \"#utility.yul\":62:78   */\n      swap1\n      pop\n        /* \"#utility.yul\":7:84   */\n      swap2\n      swap1\n      pop\n      jump\t// out\n        /* \"#utility.yul\":90:208   */\n    tag_33:\n        /* \"#utility.yul\":177:201   */\n      tag_52\n        /* \"#utility.yul\":195:200   */\n      dup2\n        /* \"#utility.yul\":177:201   */\n      tag_32\n      jump\t// in\n    tag_52:\n        /* \"#utility.yul\":172:175   */\n      dup3\n        /* \"#utility.yul\":165:202   */\n      mstore\n        /* \"#utility.yul\":90:208   */\n      pop\n      pop\n      jump\t// out\n        /* \"#utility.yul\":214:436   */\n    tag_10:\n        /* \"#utility.yul\":307:311   */\n      0x00\n        /* \"#utility.yul\":345:347   */\n      0x20\n        /* \"#utility.yul\":334:343   */\n      dup3\n        /* \"#utility.yul\":330:348   */\n      add\n        /* \"#utility.yul\":322:348   */\n      swap1\n      pop\n        /* \"#utility.yul\":358:429   */\n      tag_54\n        /* \"#utility.yul\":426:427   */\n      0x00\n        /* \"#utility.yul\":415:424   */\n      dup4\n        /* \"#utility.yul\":411:428   */\n      add\n        /* \"#utility.yul\":402:408   */\n      dup5\n        /* \"#utility.yul\":358:429   */\n      tag_33\n      jump\t// in\n    tag_54:\n        /* \"#utility.yul\":214:436   */\n      swap3\n      swap2\n      pop\n      pop\n      jump\t// out\n        /* \"#utility.yul\":523:640   */\n    tag_35:\n        /* \"#utility.yul\":632:633   */\n      0x00\n        /* \"#utility.yul\":629:630   */\n      dup1\n        /* \"#utility.yul\":622:634   */\n      revert\n        /* \"#utility.yul\":769:874   */\n    tag_37:\n        /* \"#utility.yul\":805:812   */\n      0x00\n        /* \"#utility.yul\":845:867   */\n      0xffffffffffffffffffff\n        /* \"#utility.yul\":838:843   */\n      dup3\n        /* \"#utility.yul\":834:868   */\n      and\n        /* \"#utility.yul\":823:868   */\n      swap1\n      pop\n        /* \"#utility.yul\":769:874   */\n      swap2\n      swap1\n      pop\n      jump\t// out\n        /* \"#utility.yul\":880:1000   */\n    tag_38:\n        /* \"#utility.yul\":952:975   */\n      tag_60\n        /* \"#utility.yul\":969:974   */\n      dup2\n        /* \"#utility.yul\":952:975   */\n      tag_37\n      jump\t// in\n    tag_60:\n        /* \"#utility.yul\":945:950   */\n      dup2\n        /* \"#utility.yul\":942:976   */\n      eq\n        /* \"#utility.yul\":932:994   */\n      tag_61\n      jumpi\n        /* \"#utility.yul\":990:991   */\n      0x00\n        /* \"#utility.yul\":987:988   */\n      dup1\n        /* \"#utility.yul\":980:992   */\n      revert\n        /* \"#utility.yul\":932:994   */\n    tag_61:\n        /* \"#utility.yul\":880:1000   */\n      pop\n      jump\t// out\n        /* \"#utility.yul\":1006:1147   */\n    tag_39:\n        /* \"#utility.yul\":1062:1067   */\n      0x00\n        /* \"#utility.yul\":1093:1099   */\n      dup2\n        /* \"#utility.yul\":1087:1100   */\n      mload\n        /* \"#utility.yul\":1078:1100   */\n      swap1\n      pop\n        /* \"#utility.yul\":1109:1141   */\n      tag_63\n        /* \"#utility.yul\":1135:1140   */\n      dup2\n        /* \"#utility.yul\":1109:1141   */\n      tag_38\n      jump\t// in\n    tag_63:\n        /* \"#utility.yul\":1006:1147   */\n      swap3\n      swap2\n      pop\n      pop\n      jump\t// out\n        /* \"#utility.yul\":1153:1229   */\n    tag_40:\n        /* \"#utility.yul\":1189:1196   */\n      0x00\n        /* \"#utility.yul\":1218:1223   */\n      dup2\n        /* \"#utility.yul\":1207:1223   */\n      swap1\n      pop\n        /* \"#utility.yul\":1153:1229   */\n      swap2\n      swap1\n      pop\n      jump\t// out\n        /* \"#utility.yul\":1235:1355   */\n    tag_41:\n        /* \"#utility.yul\":1307:1330   */\n      tag_66\n        /* \"#utility.yul\":1324:1329   */\n      dup2\n        /* \"#utility.yul\":1307:1330   */\n      tag_40\n      jump\t// in\n    tag_66:\n        /* \"#utility.yul\":1300:1305   */\n      dup2\n        /* \"#utility.yul\":1297:1331   */\n      eq\n        /* \"#utility.yul\":1287:1349   */\n      tag_67\n      jumpi\n        /* \"#utility.yul\":1345:1346   */\n      0x00\n        /* \"#utility.yul\":1342:1343   */\n      dup1\n        /* \"#utility.yul\":1335:1347   */\n      revert\n        /* \"#utility.yul\":1287:1349   */\n    tag_67:\n        /* \"#utility.yul\":1235:1355   */\n      pop\n      jump\t// out\n        /* \"#utility.yul\":1361:1502   */\n    tag_42:\n        /* \"#utility.yul\":1417:1422   */\n      0x00\n        /* \"#utility.yul\":1448:1454   */\n      dup2\n        /* \"#utility.yul\":1442:1455   */\n      mload\n        /* \"#utility.yul\":1433:1455   */\n      swap1\n      pop\n        /* \"#utility.yul\":1464:1496   */\n      tag_69\n        /* \"#utility.yul\":1490:1495   */\n      dup2\n        /* \"#utility.yul\":1464:1496   */\n      tag_41\n      jump\t// in\n    tag_69:\n        /* \"#utility.yul\":1361:1502   */\n      swap3\n      swap2\n      pop\n      pop\n      jump\t// out\n        /* \"#utility.yul\":1508:1630   */\n    tag_43:\n        /* \"#utility.yul\":1581:1605   */\n      tag_71\n        /* \"#utility.yul\":1599:1604   */\n      dup2\n        /* \"#utility.yul\":1581:1605   */\n      tag_32\n      jump\t// in\n    tag_71:\n        /* \"#utility.yul\":1574:1579   */\n      dup2\n        /* \"#utility.yul\":1571:1606   */\n      eq\n        /* \"#utility.yul\":1561:1624   */\n      tag_72\n      jumpi\n        /* \"#utility.yul\":1620:1621   */\n      0x00\n        /* \"#utility.yul\":1617:1618   */\n      dup1\n        /* \"#utility.yul\":1610:1622   */\n      revert\n        /* \"#utility.yul\":1561:1624   */\n    tag_72:\n        /* \"#utility.yul\":1508:1630   */\n      pop\n      jump\t// out\n        /* \"#utility.yul\":1636:1779   */\n    tag_44:\n        /* \"#utility.yul\":1693:1698   */\n      0x00\n        /* \"#utility.yul\":1724:1730   */\n      dup2\n        /* \"#utility.yul\":1718:1731   */\n      mload\n        /* \"#utility.yul\":1709:1731   */\n      swap1\n      pop\n        /* \"#utility.yul\":1740:1773   */\n      tag_74\n        /* \"#utility.yul\":1767:1772   */\n      dup2\n        /* \"#utility.yul\":1740:1773   */\n      tag_43\n      jump\t// in\n    tag_74:\n        /* \"#utility.yul\":1636:1779   */\n      swap3\n      swap2\n      pop\n      pop\n      jump\t// out\n        /* \"#utility.yul\":1785:2756   */\n    tag_24:\n        /* \"#utility.yul\":1888:1894   */\n      0x00\n        /* \"#utility.yul\":1896:1902   */\n      dup1\n        /* \"#utility.yul\":1904:1910   */\n      0x00\n        /* \"#utility.yul\":1912:1918   */\n      dup1\n        /* \"#utility.yul\":1920:1926   */\n      0x00\n        /* \"#utility.yul\":1969:1972   */\n      0xa0\n        /* \"#utility.yul\":1957:1966   */\n      dup7\n        /* \"#utility.yul\":1948:1955   */\n      dup9\n        /* \"#utility.yul\":1944:1967   */\n      sub\n        /* \"#utility.yul\":1940:1973   */\n      slt\n        /* \"#utility.yul\":1937:2057   */\n      iszero\n      tag_76\n      jumpi\n        /* \"#utility.yul\":1976:2055   */\n      tag_77\n      tag_35\n      jump\t// in\n    tag_77:\n        /* \"#utility.yul\":1937:2057   */\n    tag_76:\n        /* \"#utility.yul\":2096:2097   */\n      0x00\n        /* \"#utility.yul\":2121:2184   */\n      tag_78\n        /* \"#utility.yul\":2176:2183   */\n      dup9\n        /* \"#utility.yul\":2167:2173   */\n      dup3\n        /* \"#utility.yul\":2156:2165   */\n      dup10\n        /* \"#utility.yul\":2152:2174   */\n      add\n        /* \"#utility.yul\":2121:2184   */\n      tag_39\n      jump\t// in\n    tag_78:\n        /* \"#utility.yul\":2111:2184   */\n      swap6\n      pop\n        /* \"#utility.yul\":2067:2194   */\n      pop\n        /* \"#utility.yul\":2233:2235   */\n      0x20\n        /* \"#utility.yul\":2259:2322   */\n      tag_79\n        /* \"#utility.yul\":2314:2321   */\n      dup9\n        /* \"#utility.yul\":2305:2311   */\n      dup3\n        /* \"#utility.yul\":2294:2303   */\n      dup10\n        /* \"#utility.yul\":2290:2312   */\n      add\n        /* \"#utility.yul\":2259:2322   */\n      tag_42\n      jump\t// in\n    tag_79:\n        /* \"#utility.yul\":2249:2322   */\n      swap5\n      pop\n        /* \"#utility.yul\":2204:2332   */\n      pop\n        /* \"#utility.yul\":2371:2373   */\n      0x40\n        /* \"#utility.yul\":2397:2461   */\n      tag_80\n        /* \"#utility.yul\":2453:2460   */\n      dup9\n        /* \"#utility.yul\":2444:2450   */\n      dup3\n        /* \"#utility.yul\":2433:2442   */\n      dup10\n        /* \"#utility.yul\":2429:2451   */\n      add\n        /* \"#utility.yul\":2397:2461   */\n      tag_44\n      jump\t// in\n    tag_80:\n        /* \"#utility.yul\":2387:2461   */\n      swap4\n      pop\n        /* \"#utility.yul\":2342:2471   */\n      pop\n        /* \"#utility.yul\":2510:2512   */\n      0x60\n        /* \"#utility.yul\":2536:2600   */\n      tag_81\n        /* \"#utility.yul\":2592:2599   */\n      dup9\n        /* \"#utility.yul\":2583:2589   */\n      dup3\n        /* \"#utility.yul\":2572:2581   */\n      dup10\n        /* \"#utility.yul\":2568:2590   */\n      add\n        /* \"#utility.yul\":2536:2600   */\n      tag_44\n      jump\t// in\n    tag_81:\n        /* \"#utility.yul\":2526:2600   */\n      swap3\n      pop\n        /* \"#utility.yul\":2481:2610   */\n      pop\n        /* \"#utility.yul\":2649:2652   */\n      0x80\n        /* \"#utility.yul\":2676:2739   */\n      tag_82\n        /* \"#utility.yul\":2731:2738   */\n      dup9\n        /* \"#utility.yul\":2722:2728   */\n      dup3\n        /* \"#utility.yul\":2711:2720   */\n      dup10\n        /* \"#utility.yul\":2707:2729   */\n      add\n        /* \"#utility.yul\":2676:2739   */\n      tag_39\n      jump\t// in\n    tag_82:\n        /* \"#utility.yul\":2666:2739   */\n      swap2\n      pop\n        /* \"#utility.yul\":2620:2749   */\n      pop\n        /* \"#utility.yul\":1785:2756   */\n      swap3\n      swap6\n      pop\n      swap3\n      swap6\n      swap1\n      swap4\n      pop\n      jump\t// out\n        /* \"#utility.yul\":2762:2942   */\n    tag_45:\n        /* \"#utility.yul\":2810:2887   */\n      0x4e487b7100000000000000000000000000000000000000000000000000000000\n        /* \"#utility.yul\":2807:2808   */\n      0x00\n        /* \"#utility.yul\":2800:2888   */\n      mstore\n        /* \"#utility.yul\":2907:2911   */\n      0x11\n        /* \"#utility.yul\":2904:2905   */\n      0x04\n        /* \"#utility.yul\":2897:2912   */\n      mstore\n        /* \"#utility.yul\":2931:2935   */\n      0x24\n        /* \"#utility.yul\":2928:2929   */\n      0x00\n        /* \"#utility.yul\":2921:2936   */\n      revert\n        /* \"#utility.yul\":2948:3504   */\n    tag_26:\n        /* \"#utility.yul\":2987:2994   */\n      0x00\n        /* \"#utility.yul\":3010:3029   */\n      tag_85\n        /* \"#utility.yul\":3027:3028   */\n      dup3\n        /* \"#utility.yul\":3010:3029   */\n      tag_40\n      jump\t// in\n    tag_85:\n        /* \"#utility.yul\":3005:3029   */\n      swap2\n      pop\n        /* \"#utility.yul\":3043:3062   */\n      tag_86\n        /* \"#utility.yul\":3060:3061   */\n      dup4\n        /* \"#utility.yul\":3043:3062   */\n      tag_40\n      jump\t// in\n    tag_86:\n        /* \"#utility.yul\":3038:3062   */\n      swap3\n      pop\n        /* \"#utility.yul\":3097:3098   */\n      dup3\n        /* \"#utility.yul\":3094:3095   */\n      dup3\n        /* \"#utility.yul\":3090:3099   */\n      mul\n        /* \"#utility.yul\":3119:3148   */\n      tag_87\n        /* \"#utility.yul\":3136:3147   */\n      dup2\n        /* \"#utility.yul\":3119:3148   */\n      tag_40\n      jump\t// in\n    tag_87:\n        /* \"#utility.yul\":3108:3148   */\n      swap2\n      pop\n        /* \"#utility.yul\":3206:3272   */\n      0x8000000000000000000000000000000000000000000000000000000000000000\n        /* \"#utility.yul\":3203:3204   */\n      dup5\n        /* \"#utility.yul\":3200:3273   */\n      eq\n        /* \"#utility.yul\":3196:3197   */\n      0x00\n        /* \"#utility.yul\":3193:3194   */\n      dup5\n        /* \"#utility.yul\":3189:3198   */\n      slt\n        /* \"#utility.yul\":3185:3274   */\n      and\n        /* \"#utility.yul\":3182:3297   */\n      iszero\n      tag_88\n      jumpi\n        /* \"#utility.yul\":3277:3295   */\n      tag_89\n      tag_45\n      jump\t// in\n    tag_89:\n        /* \"#utility.yul\":3182:3297   */\n    tag_88:\n        /* \"#utility.yul\":3447:3448   */\n      dup3\n        /* \"#utility.yul\":3438:3445   */\n      dup3\n        /* \"#utility.yul\":3433:3449   */\n      sdiv\n        /* \"#utility.yul\":3430:3431   */\n      dup5\n        /* \"#utility.yul\":3427:3450   */\n      eq\n        /* \"#utility.yul\":3407:3408   */\n      dup4\n        /* \"#utility.yul\":3400:3409   */\n      iszero\n        /* \"#utility.yul\":3380:3464   */\n      or\n        /* \"#utility.yul\":3357:3497   */\n      tag_90\n      jumpi\n        /* \"#utility.yul\":3477:3495   */\n      tag_91\n      tag_45\n      jump\t// in\n    tag_91:\n        /* \"#utility.yul\":3357:3497   */\n    tag_90:\n        /* \"#utility.yul\":2995:3504   */\n      pop\n        /* \"#utility.yul\":2948:3504   */\n      swap3\n      swap2\n      pop\n      pop\n      jump\t// out\n        /* \"#utility.yul\":3510:3679   */\n    tag_46:\n        /* \"#utility.yul\":3594:3605   */\n      0x00\n        /* \"#utility.yul\":3628:3634   */\n      dup3\n        /* \"#utility.yul\":3623:3626   */\n      dup3\n        /* \"#utility.yul\":3616:3635   */\n      mstore\n        /* \"#utility.yul\":3668:3672   */\n      0x20\n        /* \"#utility.yul\":3663:3666   */\n      dup3\n        /* \"#utility.yul\":3659:3673   */\n      add\n        /* \"#utility.yul\":3644:3673   */\n      swap1\n      pop\n        /* \"#utility.yul\":3510:3679   */\n      swap3\n      swap2\n      pop\n      pop\n      jump\t// out\n        /* \"#utility.yul\":3685:3856   */\n    tag_47:\n        /* \"#utility.yul\":3825:3848   */\n      0x6469646e742073656e6420656e6f756768206574680000000000000000000000\n        /* \"#utility.yul\":3821:3822   */\n      0x00\n        /* \"#utility.yul\":3813:3819   */\n      dup3\n        /* \"#utility.yul\":3809:3823   */\n      add\n        /* \"#utility.yul\":3802:3849   */\n      mstore\n        /* \"#utility.yul\":3685:3856   */\n      pop\n      jump\t// out\n        /* \"#utility.yul\":3862:4228   */\n    tag_48:\n        /* \"#utility.yul\":4004:4007   */\n      0x00\n        /* \"#utility.yul\":4025:4092   */\n      tag_95\n        /* \"#utility.yul\":4089:4091   */\n      0x15\n        /* \"#utility.yul\":4084:4087   */\n      dup4\n        /* \"#utility.yul\":4025:4092   */\n      tag_46\n      jump\t// in\n    tag_95:\n        /* \"#utility.yul\":4018:4092   */\n      swap2\n      pop\n        /* \"#utility.yul\":4101:4194   */\n      tag_96\n        /* \"#utility.yul\":4190:4193   */\n      dup3\n        /* \"#utility.yul\":4101:4194   */\n      tag_47\n      jump\t// in\n    tag_96:\n        /* \"#utility.yul\":4219:4221   */\n      0x20\n        /* \"#utility.yul\":4214:4217   */\n      dup3\n        /* \"#utility.yul\":4210:4222   */\n      add\n        /* \"#utility.yul\":4203:4222   */\n      swap1\n      pop\n        /* \"#utility.yul\":3862:4228   */\n      swap2\n      swap1\n      pop\n      jump\t// out\n        /* \"#utility.yul\":4234:4653   */\n    tag_30:\n        /* \"#utility.yul\":4400:4404   */\n      0x00\n        /* \"#utility.yul\":4438:4440   */\n      0x20\n        /* \"#utility.yul\":4427:4436   */\n      dup3\n        /* \"#utility.yul\":4423:4441   */\n      add\n        /* \"#utility.yul\":4415:4441   */\n      swap1\n      pop\n        /* \"#utility.yul\":4487:4496   */\n      dup2\n        /* \"#utility.yul\":4481:4485   */\n      dup2\n        /* \"#utility.yul\":4477:4497   */\n      sub\n        /* \"#utility.yul\":4473:4474   */\n      0x00\n        /* \"#utility.yul\":4462:4471   */\n      dup4\n        /* \"#utility.yul\":4458:4475   */\n      add\n        /* \"#utility.yul\":4451:4498   */\n      mstore\n        /* \"#utility.yul\":4515:4646   */\n      tag_98\n        /* \"#utility.yul\":4641:4645   */\n      dup2\n        /* \"#utility.yul\":4515:4646   */\n      tag_48\n      jump\t// in\n    tag_98:\n        /* \"#utility.yul\":4507:4646   */\n      swap1\n      pop\n        /* \"#utility.yul\":4234:4653   */\n      swap2\n      swap1\n      pop\n      jump\t// out\n\n    auxdata: 0xa2646970667358221220edefc7fd45fc08b94065b18ad2cd3f2a3ada5cd0988cf8cc75adda6dab4285d064736f6c634300081a0033\n}\n",
				"bytecode": {
					"linkReferences": {},
					"object": "608060405260055f553480156012575f80fd5b50610443806100205f395ff3fe60806040526004361061003e575f3560e01c80630fcb59841461004257806351b80e411461006c578063b60d428814610096578063f36089ec146100a0575b5f80fd5b34801561004d575f80fd5b506100566100b6565b60405161006391906101c2565b60405180910390f35b348015610077575f80fd5b5061008061015e565b60405161008d91906101c2565b60405180910390f35b61009e610163565b005b3480156100ab575f80fd5b506100b46101a8565b005b5f8073694aa1769357215de4fac081bf1f309adc32530690505f8173ffffffffffffffffffffffffffffffffffffffff1663feaf968c6040518163ffffffff1660e01b815260040160a060405180830381865afa158015610119573d5f803e3d5ffd5b505050506040513d601f19601f8201168201806040525081019061013d919061027b565b505050915050670de0b6b3a764000081610157919061031f565b9250505090565b5f5481565b5f5434116101a6576040517f08c379a000000000000000000000000000000000000000000000000000000000815260040161019d906103ef565b60405180910390fd5b565b565b5f819050919050565b6101bc816101aa565b82525050565b5f6020820190506101d55f8301846101b3565b92915050565b5f80fd5b5f69ffffffffffffffffffff82169050919050565b6101fd816101df565b8114610207575f80fd5b50565b5f81519050610218816101f4565b92915050565b5f819050919050565b6102308161021e565b811461023a575f80fd5b50565b5f8151905061024b81610227565b92915050565b61025a816101aa565b8114610264575f80fd5b50565b5f8151905061027581610251565b92915050565b5f805f805f60a08688031215610294576102936101db565b5b5f6102a18882890161020a565b95505060206102b28882890161023d565b94505060406102c388828901610267565b93505060606102d488828901610267565b92505060806102e58882890161020a565b9150509295509295909350565b7f4e487b71000000000000000000000000000000000000000000000000000000005f52601160045260245ffd5b5f6103298261021e565b91506103348361021e565b92508282026103428161021e565b91507f800000000000000000000000000000000000000000000000000000000000000084145f84121615610379576103786102f2565b5b828205841483151761038e5761038d6102f2565b5b5092915050565b5f82825260208201905092915050565b7f6469646e742073656e6420656e6f7567682065746800000000000000000000005f82015250565b5f6103d9601583610395565b91506103e4826103a5565b602082019050919050565b5f6020820190508181035f830152610406816103cd565b905091905056fea2646970667358221220edefc7fd45fc08b94065b18ad2cd3f2a3ada5cd0988cf8cc75adda6dab4285d064736f6c634300081a0033",
					"opcodes": "PUSH1 0x80 PUSH1 0x40 MSTORE PUSH1 0x5 PUSH0 SSTORE CALLVALUE DUP1 ISZERO PUSH1 0x12 JUMPI PUSH0 DUP1 REVERT JUMPDEST POP PUSH2 0x443 DUP1 PUSH2 0x20 PUSH0 CODECOPY PUSH0 RETURN INVALID PUSH1 0x80 PUSH1 0x40 MSTORE PUSH1 0x4 CALLDATASIZE LT PUSH2 0x3E JUMPI PUSH0 CALLDATALOAD PUSH1 0xE0 SHR DUP1 PUSH4 0xFCB5984 EQ PUSH2 0x42 JUMPI DUP1 PUSH4 0x51B80E41 EQ PUSH2 0x6C JUMPI DUP1 PUSH4 0xB60D4288 EQ PUSH2 0x96 JUMPI DUP1 PUSH4 0xF36089EC EQ PUSH2 0xA0 JUMPI JUMPDEST PUSH0 DUP1 REVERT JUMPDEST CALLVALUE DUP1 ISZERO PUSH2 0x4D JUMPI PUSH0 DUP1 REVERT JUMPDEST POP PUSH2 0x56 PUSH2 0xB6 JUMP JUMPDEST PUSH1 0x40 MLOAD PUSH2 0x63 SWAP2 SWAP1 PUSH2 0x1C2 JUMP JUMPDEST PUSH1 0x40 MLOAD DUP1 SWAP2 SUB SWAP1 RETURN JUMPDEST CALLVALUE DUP1 ISZERO PUSH2 0x77 JUMPI PUSH0 DUP1 REVERT JUMPDEST POP PUSH2 0x80 PUSH2 0x15E JUMP JUMPDEST PUSH1 0x40 MLOAD PUSH2 0x8D SWAP2 SWAP1 PUSH2 0x1C2 JUMP JUMPDEST PUSH1 0x40 MLOAD DUP1 SWAP2 SUB SWAP1 RETURN JUMPDEST PUSH2 0x9E PUSH2 0x163 JUMP JUMPDEST STOP JUMPDEST CALLVALUE DUP1 ISZERO PUSH2 0xAB JUMPI PUSH0 DUP1 REVERT JUMPDEST POP PUSH2 0xB4 PUSH2 0x1A8 JUMP JUMPDEST STOP JUMPDEST PUSH0 DUP1 PUSH20 0x694AA1769357215DE4FAC081BF1F309ADC325306 SWAP1 POP PUSH0 DUP2 PUSH20 0xFFFFFFFFFFFFFFFFFFFFFFFFFFFFFFFFFFFFFFFF AND PUSH4 0xFEAF968C PUSH1 0x40 MLOAD DUP2 PUSH4 0xFFFFFFFF AND PUSH1 0xE0 SHL DUP2 MSTORE PUSH1 0x4 ADD PUSH1 0xA0 PUSH1 0x40 MLOAD DUP1 DUP4 SUB DUP2 DUP7 GAS STATICCALL ISZERO DUP1 ISZERO PUSH2 0x119 JUMPI RETURNDATASIZE PUSH0 DUP1 RETURNDATACOPY RETURNDATASIZE PUSH0 REVERT JUMPDEST POP POP POP POP PUSH1 0x40 MLOAD RETURNDATASIZE PUSH1 0x1F NOT PUSH1 0x1F DUP3 ADD AND DUP3 ADD DUP1 PUSH1 0x40 MSTORE POP DUP2 ADD SWAP1 PUSH2 0x13D SWAP2 SWAP1 PUSH2 0x27B JUMP JUMPDEST POP POP POP SWAP2 POP POP PUSH8 0xDE0B6B3A7640000 DUP2 PUSH2 0x157 SWAP2 SWAP1 PUSH2 0x31F JUMP JUMPDEST SWAP3 POP POP POP SWAP1 JUMP JUMPDEST PUSH0 SLOAD DUP2 JUMP JUMPDEST PUSH0 SLOAD CALLVALUE GT PUSH2 0x1A6 JUMPI PUSH1 0x40 MLOAD PUSH32 0x8C379A000000000000000000000000000000000000000000000000000000000 DUP2 MSTORE PUSH1 0x4 ADD PUSH2 0x19D SWAP1 PUSH2 0x3EF JUMP JUMPDEST PUSH1 0x40 MLOAD DUP1 SWAP2 SUB SWAP1 REVERT JUMPDEST JUMP JUMPDEST JUMP JUMPDEST PUSH0 DUP2 SWAP1 POP SWAP2 SWAP1 POP JUMP JUMPDEST PUSH2 0x1BC DUP2 PUSH2 0x1AA JUMP JUMPDEST DUP3 MSTORE POP POP JUMP JUMPDEST PUSH0 PUSH1 0x20 DUP3 ADD SWAP1 POP PUSH2 0x1D5 PUSH0 DUP4 ADD DUP5 PUSH2 0x1B3 JUMP JUMPDEST SWAP3 SWAP2 POP POP JUMP JUMPDEST PUSH0 DUP1 REVERT JUMPDEST PUSH0 PUSH10 0xFFFFFFFFFFFFFFFFFFFF DUP3 AND SWAP1 POP SWAP2 SWAP1 POP JUMP JUMPDEST PUSH2 0x1FD DUP2 PUSH2 0x1DF JUMP JUMPDEST DUP2 EQ PUSH2 0x207 JUMPI PUSH0 DUP1 REVERT JUMPDEST POP JUMP JUMPDEST PUSH0 DUP2 MLOAD SWAP1 POP PUSH2 0x218 DUP2 PUSH2 0x1F4 JUMP JUMPDEST SWAP3 SWAP2 POP POP JUMP JUMPDEST PUSH0 DUP2 SWAP1 POP SWAP2 SWAP1 POP JUMP JUMPDEST PUSH2 0x230 DUP2 PUSH2 0x21E JUMP JUMPDEST DUP2 EQ PUSH2 0x23A JUMPI PUSH0 DUP1 REVERT JUMPDEST POP JUMP JUMPDEST PUSH0 DUP2 MLOAD SWAP1 POP PUSH2 0x24B DUP2 PUSH2 0x227 JUMP JUMPDEST SWAP3 SWAP2 POP POP JUMP JUMPDEST PUSH2 0x25A DUP2 PUSH2 0x1AA JUMP JUMPDEST DUP2 EQ PUSH2 0x264 JUMPI PUSH0 DUP1 REVERT JUMPDEST POP JUMP JUMPDEST PUSH0 DUP2 MLOAD SWAP1 POP PUSH2 0x275 DUP2 PUSH2 0x251 JUMP JUMPDEST SWAP3 SWAP2 POP POP JUMP JUMPDEST PUSH0 DUP1 PUSH0 DUP1 PUSH0 PUSH1 0xA0 DUP7 DUP9 SUB SLT ISZERO PUSH2 0x294 JUMPI PUSH2 0x293 PUSH2 0x1DB JUMP JUMPDEST JUMPDEST PUSH0 PUSH2 0x2A1 DUP9 DUP3 DUP10 ADD PUSH2 0x20A JUMP JUMPDEST SWAP6 POP POP PUSH1 0x20 PUSH2 0x2B2 DUP9 DUP3 DUP10 ADD PUSH2 0x23D JUMP JUMPDEST SWAP5 POP POP PUSH1 0x40 PUSH2 0x2C3 DUP9 DUP3 DUP10 ADD PUSH2 0x267 JUMP JUMPDEST SWAP4 POP POP PUSH1 0x60 PUSH2 0x2D4 DUP9 DUP3 DUP10 ADD PUSH2 0x267 JUMP JUMPDEST SWAP3 POP POP PUSH1 0x80 PUSH2 0x2E5 DUP9 DUP3 DUP10 ADD PUSH2 0x20A JUMP JUMPDEST SWAP2 POP POP SWAP3 SWAP6 POP SWAP3 SWAP6 SWAP1 SWAP4 POP JUMP JUMPDEST PUSH32 0x4E487B7100000000000000000000000000000000000000000000000000000000 PUSH0 MSTORE PUSH1 0x11 PUSH1 0x4 MSTORE PUSH1 0x24 PUSH0 REVERT JUMPDEST PUSH0 PUSH2 0x329 DUP3 PUSH2 0x21E JUMP JUMPDEST SWAP2 POP PUSH2 0x334 DUP4 PUSH2 0x21E JUMP JUMPDEST SWAP3 POP DUP3 DUP3 MUL PUSH2 0x342 DUP2 PUSH2 0x21E JUMP JUMPDEST SWAP2 POP PUSH32 0x8000000000000000000000000000000000000000000000000000000000000000 DUP5 EQ PUSH0 DUP5 SLT AND ISZERO PUSH2 0x379 JUMPI PUSH2 0x378 PUSH2 0x2F2 JUMP JUMPDEST JUMPDEST DUP3 DUP3 SDIV DUP5 EQ DUP4 ISZERO OR PUSH2 0x38E JUMPI PUSH2 0x38D PUSH2 0x2F2 JUMP JUMPDEST JUMPDEST POP SWAP3 SWAP2 POP POP JUMP JUMPDEST PUSH0 DUP3 DUP3 MSTORE PUSH1 0x20 DUP3 ADD SWAP1 POP SWAP3 SWAP2 POP POP JUMP JUMPDEST PUSH32 0x6469646E742073656E6420656E6F756768206574680000000000000000000000 PUSH0 DUP3 ADD MSTORE POP JUMP JUMPDEST PUSH0 PUSH2 0x3D9 PUSH1 0x15 DUP4 PUSH2 0x395 JUMP JUMPDEST SWAP2 POP PUSH2 0x3E4 DUP3 PUSH2 0x3A5 JUMP JUMPDEST PUSH1 0x20 DUP3 ADD SWAP1 POP SWAP2 SWAP1 POP JUMP JUMPDEST PUSH0 PUSH1 0x20 DUP3 ADD SWAP1 POP DUP2 DUP2 SUB PUSH0 DUP4 ADD MSTORE PUSH2 0x406 DUP2 PUSH2 0x3CD JUMP JUMPDEST SWAP1 POP SWAP2 SWAP1 POP JUMP INVALID LOG2 PUSH5 0x6970667358 0x22 SLT KECCAK256 0xED 0xEF 0xC7 REVERT GASLIMIT 0xFC ADDMOD 0xB9 BLOCKHASH PUSH6 0xB18AD2CD3F2A GASPRICE 0xDA TLOAD 0xD0 SWAP9 DUP13 0xF8 0xCC PUSH22 0xADDA6DAB4285D064736F6C634300081A003300000000 "
				},
				"gasEstimates": {
					"creation": {
						"codeDepositCost": "218200",
						"executionCost": "22366",
						"totalCost": "240566"
					},
					"external": {
						"fund()": "2546",
						"getConversionRate()": "187",
						"getprice()": "infinite",
						"minUsd()": "2424"
					}
				},
				"methodIdentifiers": {
					"fund()": "b60d4288",
					"getConversionRate()": "f36089ec",
					"getprice()": "0fcb5984",
					"minUsd()": "51b80e41"
				}
			},
			"storageLayout": {
				"storage": [
					{
						"astId": 52,
						"contract": "contracts/FundMe.sol:FundMe",
						"label": "minUsd",
						"offset": 0,
						"slot": "0",
						"type": "t_uint256"
					}
				],
				"types": {
					"t_uint256": {
						"encoding": "inplace",
						"label": "uint256",
						"numberOfBytes": "32"
					}
				}
			},
			"userdoc": {
				"kind": "user",
				"methods": {},
				"version": 1
			}
		}
	}
}