{
	"contracts/FundMe.sol": {
		"FundMe": {
			"abi": [
				{
					"inputs": [],
					"stateMutability": "nonpayable",
					"type": "constructor"
				},
				{
					"inputs": [
						{
							"internalType": "address",
							"name": "funder",
							"type": "address"
						}
					],
					"name": "addressToAmountFunded",
					"outputs": [
						{
							"internalType": "uint256",
							"name": "amountFunded",
							"type": "uint256"
						}
					],
					"stateMutability": "view",
					"type": "function"
				},
				{
					"inputs": [],
					"name": "fund",
					"outputs": [],
					"stateMutability": "payable",
					"type": "function"
				},
				{
					"inputs": [
						{
							"internalType": "uint256",
							"name": "",
							"type": "uint256"
						}
					],
					"name": "funders",
					"outputs": [
						{
							"internalType": "address",
							"name": "",
							"type": "address"
						}
					],
					"stateMutability": "view",
					"type": "function"
				},
				{
					"inputs": [],
					"name": "minUsd",
					"outputs": [
						{
							"internalType": "uint256",
							"name": "",
							"type": "uint256"
						}
					],
					"stateMutability": "view",
					"type": "function"
				},
				{
					"inputs": [],
					"name": "owner",
					"outputs": [
						{
							"internalType": "address",
							"name": "",
							"type": "address"
						}
					],
					"stateMutability": "view",
					"type": "function"
				},
				{
					"inputs": [],
					"name": "withdraw",
					"outputs": [],
					"stateMutability": "nonpayable",
					"type": "function"
				}
			],
			"devdoc": {
				"kind": "dev",
				"methods": {},
				"version": 1
			},
			"evm": {
				"assembly": "    /* \"contracts/FundMe.sol\":198:1613  contract FundMe{... */\n  mstore(0x40, 0x80)\n    /* \"contracts/FundMe.sol\":394:398  5e18 */\n  0x4563918244f40000\n    /* \"contracts/FundMe.sol\":370:398  uint256 public minUsd = 5e18 */\n  0x02\n  sstore\n    /* \"contracts/FundMe.sol\":736:789  constructor() {... */\n  callvalue\n  dup1\n  iszero\n  tag_1\n  jumpi\n  0x00\n  dup1\n  revert\ntag_1:\n  pop\n    /* \"contracts/FundMe.sol\":768:778  msg.sender */\n  caller\n    /* \"contracts/FundMe.sol\":760:765  owner */\n  0x03\n  0x00\n    /* \"contracts/FundMe.sol\":760:778  owner = msg.sender */\n  0x0100\n  exp\n  dup2\n  sload\n  dup2\n  0xffffffffffffffffffffffffffffffffffffffff\n  mul\n  not\n  and\n  swap1\n  dup4\n  0xffffffffffffffffffffffffffffffffffffffff\n  and\n  mul\n  or\n  swap1\n  sstore\n  pop\n    /* \"contracts/FundMe.sol\":198:1613  contract FundMe{... */\n  dataSize(sub_0)\n  dup1\n  dataOffset(sub_0)\n  0x00\n  codecopy\n  0x00\n  return\nstop\n\nsub_0: assembly {\n        /* \"contracts/FundMe.sol\":198:1613  contract FundMe{... */\n      mstore(0x40, 0x80)\n      jumpi(tag_1, lt(calldatasize, 0x04))\n      shr(0xe0, calldataload(0x00))\n      dup1\n      0x3ccfd60b\n      eq\n      tag_2\n      jumpi\n      dup1\n      0x3e47d6f3\n      eq\n      tag_3\n      jumpi\n      dup1\n      0x51b80e41\n      eq\n      tag_4\n      jumpi\n      dup1\n      0x8da5cb5b\n      eq\n      tag_5\n      jumpi\n      dup1\n      0xb60d4288\n      eq\n      tag_6\n      jumpi\n      dup1\n      0xdc0d3dff\n      eq\n      tag_7\n      jumpi\n    tag_1:\n      0x00\n      dup1\n      revert\n        /* \"contracts/FundMe.sol\":804:1498  function withdraw() public  onlyOwner {... */\n    tag_2:\n      callvalue\n      dup1\n      iszero\n      tag_8\n      jumpi\n      0x00\n      dup1\n      revert\n    tag_8:\n      pop\n      tag_9\n      tag_10\n      jump\t// in\n    tag_9:\n      stop\n        /* \"contracts/FundMe.sol\":257:333  mapping(address funder => uint256 amountFunded) public addressToAmountFunded */\n    tag_3:\n      callvalue\n      dup1\n      iszero\n      tag_11\n      jumpi\n      0x00\n      dup1\n      revert\n    tag_11:\n      pop\n      tag_12\n      0x04\n      dup1\n      calldatasize\n      sub\n      dup2\n      add\n      swap1\n      tag_13\n      swap2\n      swap1\n      tag_14\n      jump\t// in\n    tag_13:\n      tag_15\n      jump\t// in\n    tag_12:\n      mload(0x40)\n      tag_16\n      swap2\n      swap1\n      tag_17\n      jump\t// in\n    tag_16:\n      mload(0x40)\n      dup1\n      swap2\n      sub\n      swap1\n      return\n        /* \"contracts/FundMe.sol\":370:398  uint256 public minUsd = 5e18 */\n    tag_4:\n      callvalue\n      dup1\n      iszero\n      tag_18\n      jumpi\n      0x00\n      dup1\n      revert\n    tag_18:\n      pop\n      tag_19\n      tag_20\n      jump\t// in\n    tag_19:\n      mload(0x40)\n      tag_21\n      swap2\n      swap1\n      tag_17\n      jump\t// in\n    tag_21:\n      mload(0x40)\n      dup1\n      swap2\n      sub\n      swap1\n      return\n        /* \"contracts/FundMe.sol\":708:728  address public owner */\n    tag_5:\n      callvalue\n      dup1\n      iszero\n      tag_22\n      jumpi\n      0x00\n      dup1\n      revert\n    tag_22:\n      pop\n      tag_23\n      tag_24\n      jump\t// in\n    tag_23:\n      mload(0x40)\n      tag_25\n      swap2\n      swap1\n      tag_26\n      jump\t// in\n    tag_25:\n      mload(0x40)\n      dup1\n      swap2\n      sub\n      swap1\n      return\n        /* \"contracts/FundMe.sol\":404:702  function fund() public payable {... */\n    tag_6:\n      tag_27\n      tag_28\n      jump\t// in\n    tag_27:\n      stop\n        /* \"contracts/FundMe.sol\":340:364  address[] public funders */\n    tag_7:\n      callvalue\n      dup1\n      iszero\n      tag_29\n      jumpi\n      0x00\n      dup1\n      revert\n    tag_29:\n      pop\n      tag_30\n      0x04\n      dup1\n      calldatasize\n      sub\n      dup2\n      add\n      swap1\n      tag_31\n      swap2\n      swap1\n      tag_32\n      jump\t// in\n    tag_31:\n      tag_33\n      jump\t// in\n    tag_30:\n      mload(0x40)\n      tag_34\n      swap2\n      swap1\n      tag_26\n      jump\t// in\n    tag_34:\n      mload(0x40)\n      dup1\n      swap2\n      sub\n      swap1\n      return\n        /* \"contracts/FundMe.sol\":804:1498  function withdraw() public  onlyOwner {... */\n    tag_10:\n        /* \"contracts/FundMe.sol\":1562:1567  owner */\n      0x03\n      0x00\n      swap1\n      sload\n      swap1\n      0x0100\n      exp\n      swap1\n      div\n      0xffffffffffffffffffffffffffffffffffffffff\n      and\n        /* \"contracts/FundMe.sol\":1548:1567  msg.sender == owner */\n      0xffffffffffffffffffffffffffffffffffffffff\n      and\n        /* \"contracts/FundMe.sol\":1548:1558  msg.sender */\n      caller\n        /* \"contracts/FundMe.sol\":1548:1567  msg.sender == owner */\n      0xffffffffffffffffffffffffffffffffffffffff\n      and\n      eq\n        /* \"contracts/FundMe.sol\":1540:1592  require(msg.sender == owner, \"Sender is not Owner!\") */\n      tag_36\n      jumpi\n      mload(0x40)\n      0x08c379a000000000000000000000000000000000000000000000000000000000\n      dup2\n      mstore\n      0x04\n      add\n      tag_37\n      swap1\n      tag_38\n      jump\t// in\n    tag_37:\n      mload(0x40)\n      dup1\n      swap2\n      sub\n      swap1\n      revert\n    tag_36:\n        /* \"contracts/FundMe.sol\":915:924  uint256 i */\n      0x00\n        /* \"contracts/FundMe.sol\":911:1053  for(uint256 i = 0 ; i<funders.length ; i++){... */\n    tag_40:\n        /* \"contracts/FundMe.sol\":933:940  funders */\n      0x01\n        /* \"contracts/FundMe.sol\":933:947  funders.length */\n      dup1\n      sload\n      swap1\n      pop\n        /* \"contracts/FundMe.sol\":931:932  i */\n      dup2\n        /* \"contracts/FundMe.sol\":931:947  i<funders.length */\n      lt\n        /* \"contracts/FundMe.sol\":911:1053  for(uint256 i = 0 ; i<funders.length ; i++){... */\n      iszero\n      tag_41\n      jumpi\n        /* \"contracts/FundMe.sol\":968:982  address funder */\n      0x00\n        /* \"contracts/FundMe.sol\":985:992  funders */\n      0x01\n        /* \"contracts/FundMe.sol\":993:994  i */\n      dup3\n        /* \"contracts/FundMe.sol\":985:995  funders[i] */\n      dup2\n      sload\n      dup2\n      lt\n      tag_43\n      jumpi\n      tag_44\n      tag_45\n      jump\t// in\n    tag_44:\n    tag_43:\n      swap1\n      0x00\n      mstore\n      keccak256(0x00, 0x20)\n      add\n      0x00\n      swap1\n      sload\n      swap1\n      0x0100\n      exp\n      swap1\n      div\n      0xffffffffffffffffffffffffffffffffffffffff\n      and\n        /* \"contracts/FundMe.sol\":968:995  address funder = funders[i] */\n      swap1\n      pop\n        /* \"contracts/FundMe.sol\":1041:1042  0 */\n      0x00\n        /* \"contracts/FundMe.sol\":1009:1030  addressToAmountFunded */\n      dup1\n        /* \"contracts/FundMe.sol\":1009:1038  addressToAmountFunded[funder] */\n      0x00\n        /* \"contracts/FundMe.sol\":1031:1037  funder */\n      dup4\n        /* \"contracts/FundMe.sol\":1009:1038  addressToAmountFunded[funder] */\n      0xffffffffffffffffffffffffffffffffffffffff\n      and\n      0xffffffffffffffffffffffffffffffffffffffff\n      and\n      dup2\n      mstore\n      0x20\n      add\n      swap1\n      dup2\n      mstore\n      0x20\n      add\n      0x00\n      keccak256\n        /* \"contracts/FundMe.sol\":1009:1042  addressToAmountFunded[funder] = 0 */\n      dup2\n      swap1\n      sstore\n      pop\n        /* \"contracts/FundMe.sol\":954:1053  {... */\n      pop\n        /* \"contracts/FundMe.sol\":950:953  i++ */\n      dup1\n      dup1\n      0x01\n      add\n      swap2\n      pop\n      pop\n        /* \"contracts/FundMe.sol\":911:1053  for(uint256 i = 0 ; i<funders.length ; i++){... */\n      jump(tag_40)\n    tag_41:\n      pop\n        /* \"contracts/FundMe.sol\":1086:1087  0 */\n      0x00\n        /* \"contracts/FundMe.sol\":1072:1088  new address[](0) */\n      0xffffffffffffffff\n      dup2\n      gt\n      iszero\n      tag_47\n      jumpi\n      tag_48\n      tag_49\n      jump\t// in\n    tag_48:\n    tag_47:\n      mload(0x40)\n      swap1\n      dup1\n      dup3\n      mstore\n      dup1\n      0x20\n      mul\n      0x20\n      add\n      dup3\n      add\n      0x40\n      mstore\n      dup1\n      iszero\n      tag_50\n      jumpi\n      dup2\n      0x20\n      add\n      0x20\n      dup3\n      mul\n      dup1\n      calldatasize\n      dup4\n      calldatacopy\n      dup1\n      dup3\n      add\n      swap2\n      pop\n      pop\n      swap1\n      pop\n    tag_50:\n      pop\n        /* \"contracts/FundMe.sol\":1062:1069  funders */\n      0x01\n        /* \"contracts/FundMe.sol\":1062:1088  funders = new address[](0) */\n      swap1\n      dup1\n      mload\n      swap1\n      0x20\n      add\n      swap1\n      tag_51\n      swap3\n      swap2\n      swap1\n      tag_52\n      jump\t// in\n    tag_51:\n      pop\n        /* \"contracts/FundMe.sol\":1365:1381  bool callSuccess */\n      0x00\n        /* \"contracts/FundMe.sol\":1396:1406  msg.sender */\n      caller\n        /* \"contracts/FundMe.sol\":1388:1412  payable(msg.sender).call */\n      0xffffffffffffffffffffffffffffffffffffffff\n      and\n        /* \"contracts/FundMe.sol\":1420:1441  address(this).balance */\n      selfbalance\n        /* \"contracts/FundMe.sol\":1388:1446  payable(msg.sender).call{value: address(this).balance}(\"\") */\n      mload(0x40)\n      tag_53\n      swap1\n      tag_54\n      jump\t// in\n    tag_53:\n      0x00\n      mload(0x40)\n      dup1\n      dup4\n      sub\n      dup2\n      dup6\n      dup8\n      gas\n      call\n      swap3\n      pop\n      pop\n      pop\n      returndatasize\n      dup1\n      0x00\n      dup2\n      eq\n      tag_57\n      jumpi\n      mload(0x40)\n      swap2\n      pop\n      and(add(returndatasize, 0x3f), not(0x1f))\n      dup3\n      add\n      0x40\n      mstore\n      returndatasize\n      dup3\n      mstore\n      returndatasize\n      0x00\n      0x20\n      dup5\n      add\n      returndatacopy\n      jump(tag_56)\n    tag_57:\n      0x60\n      swap2\n      pop\n    tag_56:\n      pop\n        /* \"contracts/FundMe.sol\":1364:1446  (bool callSuccess , ) = payable(msg.sender).call{value: address(this).balance}(\"\") */\n      pop\n      swap1\n      pop\n        /* \"contracts/FundMe.sol\":1464:1475  callSuccess */\n      dup1\n        /* \"contracts/FundMe.sol\":1456:1491  require(callSuccess,\"Call Faliure\") */\n      tag_58\n      jumpi\n      mload(0x40)\n      0x08c379a000000000000000000000000000000000000000000000000000000000\n      dup2\n      mstore\n      0x04\n      add\n      tag_59\n      swap1\n      tag_60\n      jump\t// in\n    tag_59:\n      mload(0x40)\n      dup1\n      swap2\n      sub\n      swap1\n      revert\n    tag_58:\n        /* \"contracts/FundMe.sol\":842:1498  {... */\n      pop\n        /* \"contracts/FundMe.sol\":804:1498  function withdraw() public  onlyOwner {... */\n      jump\t// out\n        /* \"contracts/FundMe.sol\":257:333  mapping(address funder => uint256 amountFunded) public addressToAmountFunded */\n    tag_15:\n      mstore(0x20, 0x00)\n      dup1\n      0x00\n      mstore\n      keccak256(0x00, 0x40)\n      0x00\n      swap2\n      pop\n      swap1\n      pop\n      sload\n      dup2\n      jump\t// out\n        /* \"contracts/FundMe.sol\":370:398  uint256 public minUsd = 5e18 */\n    tag_20:\n      sload(0x02)\n      dup2\n      jump\t// out\n        /* \"contracts/FundMe.sol\":708:728  address public owner */\n    tag_24:\n      0x03\n      0x00\n      swap1\n      sload\n      swap1\n      0x0100\n      exp\n      swap1\n      div\n      0xffffffffffffffffffffffffffffffffffffffff\n      and\n      dup2\n      jump\t// out\n        /* \"contracts/FundMe.sol\":404:702  function fund() public payable {... */\n    tag_28:\n        /* \"contracts/FundMe.sol\":486:492  minUsd */\n      sload(0x02)\n        /* \"contracts/FundMe.sol\":453:482  msg.value.getConversionRate() */\n      tag_62\n        /* \"contracts/FundMe.sol\":453:462  msg.value */\n      callvalue\n        /* \"contracts/FundMe.sol\":453:480  msg.value.getConversionRate */\n      tag_63\n        /* \"contracts/FundMe.sol\":453:482  msg.value.getConversionRate() */\n      jump\t// in\n    tag_62:\n        /* \"contracts/FundMe.sol\":453:492  msg.value.getConversionRate() >= minUsd */\n      lt\n      iszero\n        /* \"contracts/FundMe.sol\":445:519  require(msg.value.getConversionRate() >= minUsd , \"didnt send enough eth\") */\n      tag_64\n      jumpi\n      mload(0x40)\n      0x08c379a000000000000000000000000000000000000000000000000000000000\n      dup2\n      mstore\n      0x04\n      add\n      tag_65\n      swap1\n      tag_66\n      jump\t// in\n    tag_65:\n      mload(0x40)\n      dup1\n      swap2\n      sub\n      swap1\n      revert\n    tag_64:\n        /* \"contracts/FundMe.sol\":579:586  funders */\n      0x01\n        /* \"contracts/FundMe.sol\":592:602  msg.sender */\n      caller\n        /* \"contracts/FundMe.sol\":579:603  funders.push(msg.sender) */\n      swap1\n      dup1\n      0x01\n      dup2\n      sload\n      add\n      dup1\n      dup3\n      sstore\n      dup1\n      swap2\n      pop\n      pop\n      0x01\n      swap1\n      sub\n      swap1\n      0x00\n      mstore\n      keccak256(0x00, 0x20)\n      add\n      0x00\n      swap1\n      swap2\n      swap1\n      swap2\n      swap1\n      swap2\n      0x0100\n      exp\n      dup2\n      sload\n      dup2\n      0xffffffffffffffffffffffffffffffffffffffff\n      mul\n      not\n      and\n      swap1\n      dup4\n      0xffffffffffffffffffffffffffffffffffffffff\n      and\n      mul\n      or\n      swap1\n      sstore\n      pop\n        /* \"contracts/FundMe.sol\":685:694  msg.value */\n      callvalue\n        /* \"contracts/FundMe.sol\":649:670  addressToAmountFunded */\n      0x00\n        /* \"contracts/FundMe.sol\":649:682  addressToAmountFunded[msg.sender] */\n      dup1\n        /* \"contracts/FundMe.sol\":671:681  msg.sender */\n      caller\n        /* \"contracts/FundMe.sol\":649:682  addressToAmountFunded[msg.sender] */\n      0xffffffffffffffffffffffffffffffffffffffff\n      and\n      0xffffffffffffffffffffffffffffffffffffffff\n      and\n      dup2\n      mstore\n      0x20\n      add\n      swap1\n      dup2\n      mstore\n      0x20\n      add\n      0x00\n      keccak256\n      sload\n        /* \"contracts/FundMe.sol\":649:694  addressToAmountFunded[msg.sender] + msg.value */\n      tag_68\n      swap2\n      swap1\n      tag_69\n      jump\t// in\n    tag_68:\n        /* \"contracts/FundMe.sol\":613:634  addressToAmountFunded */\n      0x00\n        /* \"contracts/FundMe.sol\":613:646  addressToAmountFunded[msg.sender] */\n      dup1\n        /* \"contracts/FundMe.sol\":635:645  msg.sender */\n      caller\n        /* \"contracts/FundMe.sol\":613:646  addressToAmountFunded[msg.sender] */\n      0xffffffffffffffffffffffffffffffffffffffff\n      and\n      0xffffffffffffffffffffffffffffffffffffffff\n      and\n      dup2\n      mstore\n      0x20\n      add\n      swap1\n      dup2\n      mstore\n      0x20\n      add\n      0x00\n      keccak256\n        /* \"contracts/FundMe.sol\":613:694  addressToAmountFunded[msg.sender] = addressToAmountFunded[msg.sender] + msg.value */\n      dup2\n      swap1\n      sstore\n      pop\n        /* \"contracts/FundMe.sol\":404:702  function fund() public payable {... */\n      jump\t// out\n        /* \"contracts/FundMe.sol\":340:364  address[] public funders */\n    tag_33:\n      0x01\n      dup2\n      dup2\n      sload\n      dup2\n      lt\n      tag_70\n      jumpi\n      0x00\n      dup1\n      revert\n    tag_70:\n      swap1\n      0x00\n      mstore\n      keccak256(0x00, 0x20)\n      add\n      0x00\n      swap2\n      pop\n      sload\n      swap1\n      0x0100\n      exp\n      swap1\n      div\n      0xffffffffffffffffffffffffffffffffffffffff\n      and\n      dup2\n      jump\t// out\n        /* \"contracts/PriceConverter.sol\":671:890  function getConversionRate(uint256 ethAmount) internal view returns (uint256){... */\n    tag_63:\n        /* \"contracts/PriceConverter.sol\":740:747  uint256 */\n      0x00\n        /* \"contracts/PriceConverter.sol\":758:774  uint256 ethPrice */\n      dup1\n        /* \"contracts/PriceConverter.sol\":777:787  getPrice() */\n      tag_73\n        /* \"contracts/PriceConverter.sol\":777:785  getPrice */\n      tag_74\n        /* \"contracts/PriceConverter.sol\":777:787  getPrice() */\n      jump\t// in\n    tag_73:\n        /* \"contracts/PriceConverter.sol\":758:787  uint256 ethPrice = getPrice() */\n      swap1\n      pop\n        /* \"contracts/PriceConverter.sol\":797:819  uint256 ethAmountInUsd */\n      0x00\n        /* \"contracts/PriceConverter.sol\":847:851  1e18 */\n      0x0de0b6b3a7640000\n        /* \"contracts/PriceConverter.sol\":834:843  ethAmount */\n      dup5\n        /* \"contracts/PriceConverter.sol\":823:831  ethPrice */\n      dup4\n        /* \"contracts/PriceConverter.sol\":823:843  ethPrice * ethAmount */\n      tag_75\n      swap2\n      swap1\n      tag_76\n      jump\t// in\n    tag_75:\n        /* \"contracts/PriceConverter.sol\":822:851  (ethPrice * ethAmount) / 1e18 */\n      tag_77\n      swap2\n      swap1\n      tag_78\n      jump\t// in\n    tag_77:\n        /* \"contracts/PriceConverter.sol\":797:851  uint256 ethAmountInUsd = (ethPrice * ethAmount) / 1e18 */\n      swap1\n      pop\n        /* \"contracts/PriceConverter.sol\":869:883  ethAmountInUsd */\n      dup1\n        /* \"contracts/PriceConverter.sol\":862:883  return ethAmountInUsd */\n      swap3\n      pop\n      pop\n      pop\n        /* \"contracts/PriceConverter.sol\":671:890  function getConversionRate(uint256 ethAmount) internal view returns (uint256){... */\n      swap2\n      swap1\n      pop\n      jump\t// out\n        /* \"contracts/PriceConverter.sol\":199:665  function getPrice() internal view returns (uint256){ ... */\n    tag_74:\n        /* \"contracts/PriceConverter.sol\":242:249  uint256 */\n      0x00\n        /* \"contracts/PriceConverter.sol\":293:324  AggregatorV3Interface priceFeed */\n      dup1\n        /* \"contracts/PriceConverter.sol\":349:391  0x694AA1769357215DE4FAC081bf1f309aDC325306 */\n      0x694aa1769357215de4fac081bf1f309adc325306\n        /* \"contracts/PriceConverter.sol\":293:392  AggregatorV3Interface priceFeed = AggregatorV3Interface(0x694AA1769357215DE4FAC081bf1f309aDC325306) */\n      swap1\n      pop\n        /* \"contracts/PriceConverter.sol\":431:440  int price */\n      0x00\n        /* \"contracts/PriceConverter.sol\":537:546  priceFeed */\n      dup2\n        /* \"contracts/PriceConverter.sol\":537:562  priceFeed.latestRoundData */\n      0xffffffffffffffffffffffffffffffffffffffff\n      and\n      0xfeaf968c\n        /* \"contracts/PriceConverter.sol\":537:564  priceFeed.latestRoundData() */\n      mload(0x40)\n      dup2\n      0xffffffff\n      and\n      0xe0\n      shl\n      dup2\n      mstore\n      0x04\n      add\n      0xa0\n      mload(0x40)\n      dup1\n      dup4\n      sub\n      dup2\n      dup7\n      gas\n      staticcall\n      iszero\n      dup1\n      iszero\n      tag_81\n      jumpi\n      returndatasize\n      0x00\n      dup1\n      returndatacopy\n      revert(0x00, returndatasize)\n    tag_81:\n      pop\n      pop\n      pop\n      pop\n      mload(0x40)\n      returndatasize\n      not(0x1f)\n      0x1f\n      dup3\n      add\n      and\n      dup3\n      add\n      dup1\n      0x40\n      mstore\n      pop\n      dup2\n      add\n      swap1\n      tag_82\n      swap2\n      swap1\n      tag_83\n      jump\t// in\n    tag_82:\n        /* \"contracts/PriceConverter.sol\":402:564  (/*uint80 roundId*/,... */\n      pop\n      pop\n      pop\n      swap2\n      pop\n      pop\n        /* \"contracts/PriceConverter.sol\":653:657  1e18 */\n      0x0de0b6b3a7640000\n        /* \"contracts/PriceConverter.sol\":645:650  price */\n      dup2\n        /* \"contracts/PriceConverter.sol\":645:657  price * 1e18 */\n      tag_84\n      swap2\n      swap1\n      tag_85\n      jump\t// in\n    tag_84:\n        /* \"contracts/PriceConverter.sol\":630:658  return uint256(price * 1e18) */\n      swap3\n      pop\n      pop\n      pop\n        /* \"contracts/PriceConverter.sol\":199:665  function getPrice() internal view returns (uint256){ ... */\n      swap1\n      jump\t// out\n    tag_52:\n      dup3\n      dup1\n      sload\n      dup3\n      dup3\n      sstore\n      swap1\n      0x00\n      mstore\n      keccak256(0x00, 0x20)\n      swap1\n      dup2\n      add\n      swap3\n      dup3\n      iszero\n      tag_86\n      jumpi\n      swap2\n      0x20\n      mul\n      dup3\n      add\n    tag_87:\n      dup3\n      dup2\n      gt\n      iszero\n      tag_88\n      jumpi\n      dup3\n      mload\n      dup3\n      exp(0x0100, 0x00)\n      dup2\n      sload\n      dup2\n      0xffffffffffffffffffffffffffffffffffffffff\n      mul\n      not\n      and\n      swap1\n      dup4\n      0xffffffffffffffffffffffffffffffffffffffff\n      and\n      mul\n      or\n      swap1\n      sstore\n      pop\n      swap2\n      0x20\n      add\n      swap2\n      swap1\n      0x01\n      add\n      swap1\n      jump(tag_87)\n    tag_88:\n    tag_86:\n      pop\n      swap1\n      pop\n      tag_89\n      swap2\n      swap1\n      tag_90\n      jump\t// in\n    tag_89:\n      pop\n      swap1\n      jump\t// out\n    tag_90:\n    tag_91:\n      dup1\n      dup3\n      gt\n      iszero\n      tag_92\n      jumpi\n      0x00\n      dup2\n      0x00\n      swap1\n      sstore\n      pop\n      0x01\n      add\n      jump(tag_91)\n    tag_92:\n      pop\n      swap1\n      jump\t// out\n        /* \"#utility.yul\":88:205   */\n    tag_94:\n        /* \"#utility.yul\":197:198   */\n      0x00\n        /* \"#utility.yul\":194:195   */\n      dup1\n        /* \"#utility.yul\":187:199   */\n      revert\n        /* \"#utility.yul\":334:460   */\n    tag_96:\n        /* \"#utility.yul\":371:378   */\n      0x00\n        /* \"#utility.yul\":411:453   */\n      0xffffffffffffffffffffffffffffffffffffffff\n        /* \"#utility.yul\":404:409   */\n      dup3\n        /* \"#utility.yul\":400:454   */\n      and\n        /* \"#utility.yul\":389:454   */\n      swap1\n      pop\n        /* \"#utility.yul\":334:460   */\n      swap2\n      swap1\n      pop\n      jump\t// out\n        /* \"#utility.yul\":466:562   */\n    tag_97:\n        /* \"#utility.yul\":503:510   */\n      0x00\n        /* \"#utility.yul\":532:556   */\n      tag_130\n        /* \"#utility.yul\":550:555   */\n      dup3\n        /* \"#utility.yul\":532:556   */\n      tag_96\n      jump\t// in\n    tag_130:\n        /* \"#utility.yul\":521:556   */\n      swap1\n      pop\n        /* \"#utility.yul\":466:562   */\n      swap2\n      swap1\n      pop\n      jump\t// out\n        /* \"#utility.yul\":568:690   */\n    tag_98:\n        /* \"#utility.yul\":641:665   */\n      tag_132\n        /* \"#utility.yul\":659:664   */\n      dup2\n        /* \"#utility.yul\":641:665   */\n      tag_97\n      jump\t// in\n    tag_132:\n        /* \"#utility.yul\":634:639   */\n      dup2\n        /* \"#utility.yul\":631:666   */\n      eq\n        /* \"#utility.yul\":621:684   */\n      tag_133\n      jumpi\n        /* \"#utility.yul\":680:681   */\n      0x00\n        /* \"#utility.yul\":677:678   */\n      dup1\n        /* \"#utility.yul\":670:682   */\n      revert\n        /* \"#utility.yul\":621:684   */\n    tag_133:\n        /* \"#utility.yul\":568:690   */\n      pop\n      jump\t// out\n        /* \"#utility.yul\":696:835   */\n    tag_99:\n        /* \"#utility.yul\":742:747   */\n      0x00\n        /* \"#utility.yul\":780:786   */\n      dup2\n        /* \"#utility.yul\":767:787   */\n      calldataload\n        /* \"#utility.yul\":758:787   */\n      swap1\n      pop\n        /* \"#utility.yul\":796:829   */\n      tag_135\n        /* \"#utility.yul\":823:828   */\n      dup2\n        /* \"#utility.yul\":796:829   */\n      tag_98\n      jump\t// in\n    tag_135:\n        /* \"#utility.yul\":696:835   */\n      swap3\n      swap2\n      pop\n      pop\n      jump\t// out\n        /* \"#utility.yul\":841:1170   */\n    tag_14:\n        /* \"#utility.yul\":900:906   */\n      0x00\n        /* \"#utility.yul\":949:951   */\n      0x20\n        /* \"#utility.yul\":937:946   */\n      dup3\n        /* \"#utility.yul\":928:935   */\n      dup5\n        /* \"#utility.yul\":924:947   */\n      sub\n        /* \"#utility.yul\":920:952   */\n      slt\n        /* \"#utility.yul\":917:1036   */\n      iszero\n      tag_137\n      jumpi\n        /* \"#utility.yul\":955:1034   */\n      tag_138\n      tag_94\n      jump\t// in\n    tag_138:\n        /* \"#utility.yul\":917:1036   */\n    tag_137:\n        /* \"#utility.yul\":1075:1076   */\n      0x00\n        /* \"#utility.yul\":1100:1153   */\n      tag_139\n        /* \"#utility.yul\":1145:1152   */\n      dup5\n        /* \"#utility.yul\":1136:1142   */\n      dup3\n        /* \"#utility.yul\":1125:1134   */\n      dup6\n        /* \"#utility.yul\":1121:1143   */\n      add\n        /* \"#utility.yul\":1100:1153   */\n      tag_99\n      jump\t// in\n    tag_139:\n        /* \"#utility.yul\":1090:1153   */\n      swap2\n      pop\n        /* \"#utility.yul\":1046:1163   */\n      pop\n        /* \"#utility.yul\":841:1170   */\n      swap3\n      swap2\n      pop\n      pop\n      jump\t// out\n        /* \"#utility.yul\":1176:1253   */\n    tag_100:\n        /* \"#utility.yul\":1213:1220   */\n      0x00\n        /* \"#utility.yul\":1242:1247   */\n      dup2\n        /* \"#utility.yul\":1231:1247   */\n      swap1\n      pop\n        /* \"#utility.yul\":1176:1253   */\n      swap2\n      swap1\n      pop\n      jump\t// out\n        /* \"#utility.yul\":1259:1377   */\n    tag_101:\n        /* \"#utility.yul\":1346:1370   */\n      tag_142\n        /* \"#utility.yul\":1364:1369   */\n      dup2\n        /* \"#utility.yul\":1346:1370   */\n      tag_100\n      jump\t// in\n    tag_142:\n        /* \"#utility.yul\":1341:1344   */\n      dup3\n        /* \"#utility.yul\":1334:1371   */\n      mstore\n        /* \"#utility.yul\":1259:1377   */\n      pop\n      pop\n      jump\t// out\n        /* \"#utility.yul\":1383:1605   */\n    tag_17:\n        /* \"#utility.yul\":1476:1480   */\n      0x00\n        /* \"#utility.yul\":1514:1516   */\n      0x20\n        /* \"#utility.yul\":1503:1512   */\n      dup3\n        /* \"#utility.yul\":1499:1517   */\n      add\n        /* \"#utility.yul\":1491:1517   */\n      swap1\n      pop\n        /* \"#utility.yul\":1527:1598   */\n      tag_144\n        /* \"#utility.yul\":1595:1596   */\n      0x00\n        /* \"#utility.yul\":1584:1593   */\n      dup4\n        /* \"#utility.yul\":1580:1597   */\n      add\n        /* \"#utility.yul\":1571:1577   */\n      dup5\n        /* \"#utility.yul\":1527:1598   */\n      tag_101\n      jump\t// in\n    tag_144:\n        /* \"#utility.yul\":1383:1605   */\n      swap3\n      swap2\n      pop\n      pop\n      jump\t// out\n        /* \"#utility.yul\":1611:1729   */\n    tag_102:\n        /* \"#utility.yul\":1698:1722   */\n      tag_146\n        /* \"#utility.yul\":1716:1721   */\n      dup2\n        /* \"#utility.yul\":1698:1722   */\n      tag_97\n      jump\t// in\n    tag_146:\n        /* \"#utility.yul\":1693:1696   */\n      dup3\n        /* \"#utility.yul\":1686:1723   */\n      mstore\n        /* \"#utility.yul\":1611:1729   */\n      pop\n      pop\n      jump\t// out\n        /* \"#utility.yul\":1735:1957   */\n    tag_26:\n        /* \"#utility.yul\":1828:1832   */\n      0x00\n        /* \"#utility.yul\":1866:1868   */\n      0x20\n        /* \"#utility.yul\":1855:1864   */\n      dup3\n        /* \"#utility.yul\":1851:1869   */\n      add\n        /* \"#utility.yul\":1843:1869   */\n      swap1\n      pop\n        /* \"#utility.yul\":1879:1950   */\n      tag_148\n        /* \"#utility.yul\":1947:1948   */\n      0x00\n        /* \"#utility.yul\":1936:1945   */\n      dup4\n        /* \"#utility.yul\":1932:1949   */\n      add\n        /* \"#utility.yul\":1923:1929   */\n      dup5\n        /* \"#utility.yul\":1879:1950   */\n      tag_102\n      jump\t// in\n    tag_148:\n        /* \"#utility.yul\":1735:1957   */\n      swap3\n      swap2\n      pop\n      pop\n      jump\t// out\n        /* \"#utility.yul\":1963:2085   */\n    tag_103:\n        /* \"#utility.yul\":2036:2060   */\n      tag_150\n        /* \"#utility.yul\":2054:2059   */\n      dup2\n        /* \"#utility.yul\":2036:2060   */\n      tag_100\n      jump\t// in\n    tag_150:\n        /* \"#utility.yul\":2029:2034   */\n      dup2\n        /* \"#utility.yul\":2026:2061   */\n      eq\n        /* \"#utility.yul\":2016:2079   */\n      tag_151\n      jumpi\n        /* \"#utility.yul\":2075:2076   */\n      0x00\n        /* \"#utility.yul\":2072:2073   */\n      dup1\n        /* \"#utility.yul\":2065:2077   */\n      revert\n        /* \"#utility.yul\":2016:2079   */\n    tag_151:\n        /* \"#utility.yul\":1963:2085   */\n      pop\n      jump\t// out\n        /* \"#utility.yul\":2091:2230   */\n    tag_104:\n        /* \"#utility.yul\":2137:2142   */\n      0x00\n        /* \"#utility.yul\":2175:2181   */\n      dup2\n        /* \"#utility.yul\":2162:2182   */\n      calldataload\n        /* \"#utility.yul\":2153:2182   */\n      swap1\n      pop\n        /* \"#utility.yul\":2191:2224   */\n      tag_153\n        /* \"#utility.yul\":2218:2223   */\n      dup2\n        /* \"#utility.yul\":2191:2224   */\n      tag_103\n      jump\t// in\n    tag_153:\n        /* \"#utility.yul\":2091:2230   */\n      swap3\n      swap2\n      pop\n      pop\n      jump\t// out\n        /* \"#utility.yul\":2236:2565   */\n    tag_32:\n        /* \"#utility.yul\":2295:2301   */\n      0x00\n        /* \"#utility.yul\":2344:2346   */\n      0x20\n        /* \"#utility.yul\":2332:2341   */\n      dup3\n        /* \"#utility.yul\":2323:2330   */\n      dup5\n        /* \"#utility.yul\":2319:2342   */\n      sub\n        /* \"#utility.yul\":2315:2347   */\n      slt\n        /* \"#utility.yul\":2312:2431   */\n      iszero\n      tag_155\n      jumpi\n        /* \"#utility.yul\":2350:2429   */\n      tag_156\n      tag_94\n      jump\t// in\n    tag_156:\n        /* \"#utility.yul\":2312:2431   */\n    tag_155:\n        /* \"#utility.yul\":2470:2471   */\n      0x00\n        /* \"#utility.yul\":2495:2548   */\n      tag_157\n        /* \"#utility.yul\":2540:2547   */\n      dup5\n        /* \"#utility.yul\":2531:2537   */\n      dup3\n        /* \"#utility.yul\":2520:2529   */\n      dup6\n        /* \"#utility.yul\":2516:2538   */\n      add\n        /* \"#utility.yul\":2495:2548   */\n      tag_104\n      jump\t// in\n    tag_157:\n        /* \"#utility.yul\":2485:2548   */\n      swap2\n      pop\n        /* \"#utility.yul\":2441:2558   */\n      pop\n        /* \"#utility.yul\":2236:2565   */\n      swap3\n      swap2\n      pop\n      pop\n      jump\t// out\n        /* \"#utility.yul\":2571:2740   */\n    tag_105:\n        /* \"#utility.yul\":2655:2666   */\n      0x00\n        /* \"#utility.yul\":2689:2695   */\n      dup3\n        /* \"#utility.yul\":2684:2687   */\n      dup3\n        /* \"#utility.yul\":2677:2696   */\n      mstore\n        /* \"#utility.yul\":2729:2733   */\n      0x20\n        /* \"#utility.yul\":2724:2727   */\n      dup3\n        /* \"#utility.yul\":2720:2734   */\n      add\n        /* \"#utility.yul\":2705:2734   */\n      swap1\n      pop\n        /* \"#utility.yul\":2571:2740   */\n      swap3\n      swap2\n      pop\n      pop\n      jump\t// out\n        /* \"#utility.yul\":2746:2916   */\n    tag_106:\n        /* \"#utility.yul\":2886:2908   */\n      0x53656e646572206973206e6f74204f776e657221000000000000000000000000\n        /* \"#utility.yul\":2882:2883   */\n      0x00\n        /* \"#utility.yul\":2874:2880   */\n      dup3\n        /* \"#utility.yul\":2870:2884   */\n      add\n        /* \"#utility.yul\":2863:2909   */\n      mstore\n        /* \"#utility.yul\":2746:2916   */\n      pop\n      jump\t// out\n        /* \"#utility.yul\":2922:3288   */\n    tag_107:\n        /* \"#utility.yul\":3064:3067   */\n      0x00\n        /* \"#utility.yul\":3085:3152   */\n      tag_161\n        /* \"#utility.yul\":3149:3151   */\n      0x14\n        /* \"#utility.yul\":3144:3147   */\n      dup4\n        /* \"#utility.yul\":3085:3152   */\n      tag_105\n      jump\t// in\n    tag_161:\n        /* \"#utility.yul\":3078:3152   */\n      swap2\n      pop\n        /* \"#utility.yul\":3161:3254   */\n      tag_162\n        /* \"#utility.yul\":3250:3253   */\n      dup3\n        /* \"#utility.yul\":3161:3254   */\n      tag_106\n      jump\t// in\n    tag_162:\n        /* \"#utility.yul\":3279:3281   */\n      0x20\n        /* \"#utility.yul\":3274:3277   */\n      dup3\n        /* \"#utility.yul\":3270:3282   */\n      add\n        /* \"#utility.yul\":3263:3282   */\n      swap1\n      pop\n        /* \"#utility.yul\":2922:3288   */\n      swap2\n      swap1\n      pop\n      jump\t// out\n        /* \"#utility.yul\":3294:3713   */\n    tag_38:\n        /* \"#utility.yul\":3460:3464   */\n      0x00\n        /* \"#utility.yul\":3498:3500   */\n      0x20\n        /* \"#utility.yul\":3487:3496   */\n      dup3\n        /* \"#utility.yul\":3483:3501   */\n      add\n        /* \"#utility.yul\":3475:3501   */\n      swap1\n      pop\n        /* \"#utility.yul\":3547:3556   */\n      dup2\n        /* \"#utility.yul\":3541:3545   */\n      dup2\n        /* \"#utility.yul\":3537:3557   */\n      sub\n        /* \"#utility.yul\":3533:3534   */\n      0x00\n        /* \"#utility.yul\":3522:3531   */\n      dup4\n        /* \"#utility.yul\":3518:3535   */\n      add\n        /* \"#utility.yul\":3511:3558   */\n      mstore\n        /* \"#utility.yul\":3575:3706   */\n      tag_164\n        /* \"#utility.yul\":3701:3705   */\n      dup2\n        /* \"#utility.yul\":3575:3706   */\n      tag_107\n      jump\t// in\n    tag_164:\n        /* \"#utility.yul\":3567:3706   */\n      swap1\n      pop\n        /* \"#utility.yul\":3294:3713   */\n      swap2\n      swap1\n      pop\n      jump\t// out\n        /* \"#utility.yul\":3719:3899   */\n    tag_45:\n        /* \"#utility.yul\":3767:3844   */\n      0x4e487b7100000000000000000000000000000000000000000000000000000000\n        /* \"#utility.yul\":3764:3765   */\n      0x00\n        /* \"#utility.yul\":3757:3845   */\n      mstore\n        /* \"#utility.yul\":3864:3868   */\n      0x32\n        /* \"#utility.yul\":3861:3862   */\n      0x04\n        /* \"#utility.yul\":3854:3869   */\n      mstore\n        /* \"#utility.yul\":3888:3892   */\n      0x24\n        /* \"#utility.yul\":3885:3886   */\n      0x00\n        /* \"#utility.yul\":3878:3893   */\n      revert\n        /* \"#utility.yul\":3905:4085   */\n    tag_49:\n        /* \"#utility.yul\":3953:4030   */\n      0x4e487b7100000000000000000000000000000000000000000000000000000000\n        /* \"#utility.yul\":3950:3951   */\n      0x00\n        /* \"#utility.yul\":3943:4031   */\n      mstore\n        /* \"#utility.yul\":4050:4054   */\n      0x41\n        /* \"#utility.yul\":4047:4048   */\n      0x04\n        /* \"#utility.yul\":4040:4055   */\n      mstore\n        /* \"#utility.yul\":4074:4078   */\n      0x24\n        /* \"#utility.yul\":4071:4072   */\n      0x00\n        /* \"#utility.yul\":4064:4079   */\n      revert\n        /* \"#utility.yul\":4091:4238   */\n    tag_108:\n        /* \"#utility.yul\":4192:4203   */\n      0x00\n        /* \"#utility.yul\":4229:4232   */\n      dup2\n        /* \"#utility.yul\":4214:4232   */\n      swap1\n      pop\n        /* \"#utility.yul\":4091:4238   */\n      swap3\n      swap2\n      pop\n      pop\n      jump\t// out\n        /* \"#utility.yul\":4244:4358   */\n    tag_109:\n      pop\n      jump\t// out\n        /* \"#utility.yul\":4364:4762   */\n    tag_110:\n        /* \"#utility.yul\":4523:4526   */\n      0x00\n        /* \"#utility.yul\":4544:4627   */\n      tag_170\n        /* \"#utility.yul\":4625:4626   */\n      0x00\n        /* \"#utility.yul\":4620:4623   */\n      dup4\n        /* \"#utility.yul\":4544:4627   */\n      tag_108\n      jump\t// in\n    tag_170:\n        /* \"#utility.yul\":4537:4627   */\n      swap2\n      pop\n        /* \"#utility.yul\":4636:4729   */\n      tag_171\n        /* \"#utility.yul\":4725:4728   */\n      dup3\n        /* \"#utility.yul\":4636:4729   */\n      tag_109\n      jump\t// in\n    tag_171:\n        /* \"#utility.yul\":4754:4755   */\n      0x00\n        /* \"#utility.yul\":4749:4752   */\n      dup3\n        /* \"#utility.yul\":4745:4756   */\n      add\n        /* \"#utility.yul\":4738:4756   */\n      swap1\n      pop\n        /* \"#utility.yul\":4364:4762   */\n      swap2\n      swap1\n      pop\n      jump\t// out\n        /* \"#utility.yul\":4768:5147   */\n    tag_54:\n        /* \"#utility.yul\":4952:4955   */\n      0x00\n        /* \"#utility.yul\":4974:5121   */\n      tag_173\n        /* \"#utility.yul\":5117:5120   */\n      dup3\n        /* \"#utility.yul\":4974:5121   */\n      tag_110\n      jump\t// in\n    tag_173:\n        /* \"#utility.yul\":4967:5121   */\n      swap2\n      pop\n        /* \"#utility.yul\":5138:5141   */\n      dup2\n        /* \"#utility.yul\":5131:5141   */\n      swap1\n      pop\n        /* \"#utility.yul\":4768:5147   */\n      swap2\n      swap1\n      pop\n      jump\t// out\n        /* \"#utility.yul\":5153:5315   */\n    tag_111:\n        /* \"#utility.yul\":5293:5307   */\n      0x43616c6c2046616c697572650000000000000000000000000000000000000000\n        /* \"#utility.yul\":5289:5290   */\n      0x00\n        /* \"#utility.yul\":5281:5287   */\n      dup3\n        /* \"#utility.yul\":5277:5291   */\n      add\n        /* \"#utility.yul\":5270:5308   */\n      mstore\n        /* \"#utility.yul\":5153:5315   */\n      pop\n      jump\t// out\n        /* \"#utility.yul\":5321:5687   */\n    tag_112:\n        /* \"#utility.yul\":5463:5466   */\n      0x00\n        /* \"#utility.yul\":5484:5551   */\n      tag_176\n        /* \"#utility.yul\":5548:5550   */\n      0x0c\n        /* \"#utility.yul\":5543:5546   */\n      dup4\n        /* \"#utility.yul\":5484:5551   */\n      tag_105\n      jump\t// in\n    tag_176:\n        /* \"#utility.yul\":5477:5551   */\n      swap2\n      pop\n        /* \"#utility.yul\":5560:5653   */\n      tag_177\n        /* \"#utility.yul\":5649:5652   */\n      dup3\n        /* \"#utility.yul\":5560:5653   */\n      tag_111\n      jump\t// in\n    tag_177:\n        /* \"#utility.yul\":5678:5680   */\n      0x20\n        /* \"#utility.yul\":5673:5676   */\n      dup3\n        /* \"#utility.yul\":5669:5681   */\n      add\n        /* \"#utility.yul\":5662:5681   */\n      swap1\n      pop\n        /* \"#utility.yul\":5321:5687   */\n      swap2\n      swap1\n      pop\n      jump\t// out\n        /* \"#utility.yul\":5693:6112   */\n    tag_60:\n        /* \"#utility.yul\":5859:5863   */\n      0x00\n        /* \"#utility.yul\":5897:5899   */\n      0x20\n        /* \"#utility.yul\":5886:5895   */\n      dup3\n        /* \"#utility.yul\":5882:5900   */\n      add\n        /* \"#utility.yul\":5874:5900   */\n      swap1\n      pop\n        /* \"#utility.yul\":5946:5955   */\n      dup2\n        /* \"#utility.yul\":5940:5944   */\n      dup2\n        /* \"#utility.yul\":5936:5956   */\n      sub\n        /* \"#utility.yul\":5932:5933   */\n      0x00\n        /* \"#utility.yul\":5921:5930   */\n      dup4\n        /* \"#utility.yul\":5917:5934   */\n      add\n        /* \"#utility.yul\":5910:5957   */\n      mstore\n        /* \"#utility.yul\":5974:6105   */\n      tag_179\n        /* \"#utility.yul\":6100:6104   */\n      dup2\n        /* \"#utility.yul\":5974:6105   */\n      tag_112\n      jump\t// in\n    tag_179:\n        /* \"#utility.yul\":5966:6105   */\n      swap1\n      pop\n        /* \"#utility.yul\":5693:6112   */\n      swap2\n      swap1\n      pop\n      jump\t// out\n        /* \"#utility.yul\":6118:6289   */\n    tag_113:\n        /* \"#utility.yul\":6258:6281   */\n      0x6469646e742073656e6420656e6f756768206574680000000000000000000000\n        /* \"#utility.yul\":6254:6255   */\n      0x00\n        /* \"#utility.yul\":6246:6252   */\n      dup3\n        /* \"#utility.yul\":6242:6256   */\n      add\n        /* \"#utility.yul\":6235:6282   */\n      mstore\n        /* \"#utility.yul\":6118:6289   */\n      pop\n      jump\t// out\n        /* \"#utility.yul\":6295:6661   */\n    tag_114:\n        /* \"#utility.yul\":6437:6440   */\n      0x00\n        /* \"#utility.yul\":6458:6525   */\n      tag_182\n        /* \"#utility.yul\":6522:6524   */\n      0x15\n        /* \"#utility.yul\":6517:6520   */\n      dup4\n        /* \"#utility.yul\":6458:6525   */\n      tag_105\n      jump\t// in\n    tag_182:\n        /* \"#utility.yul\":6451:6525   */\n      swap2\n      pop\n        /* \"#utility.yul\":6534:6627   */\n      tag_183\n        /* \"#utility.yul\":6623:6626   */\n      dup3\n        /* \"#utility.yul\":6534:6627   */\n      tag_113\n      jump\t// in\n    tag_183:\n        /* \"#utility.yul\":6652:6654   */\n      0x20\n        /* \"#utility.yul\":6647:6650   */\n      dup3\n        /* \"#utility.yul\":6643:6655   */\n      add\n        /* \"#utility.yul\":6636:6655   */\n      swap1\n      pop\n        /* \"#utility.yul\":6295:6661   */\n      swap2\n      swap1\n      pop\n      jump\t// out\n        /* \"#utility.yul\":6667:7086   */\n    tag_66:\n        /* \"#utility.yul\":6833:6837   */\n      0x00\n        /* \"#utility.yul\":6871:6873   */\n      0x20\n        /* \"#utility.yul\":6860:6869   */\n      dup3\n        /* \"#utility.yul\":6856:6874   */\n      add\n        /* \"#utility.yul\":6848:6874   */\n      swap1\n      pop\n        /* \"#utility.yul\":6920:6929   */\n      dup2\n        /* \"#utility.yul\":6914:6918   */\n      dup2\n        /* \"#utility.yul\":6910:6930   */\n      sub\n        /* \"#utility.yul\":6906:6907   */\n      0x00\n        /* \"#utility.yul\":6895:6904   */\n      dup4\n        /* \"#utility.yul\":6891:6908   */\n      add\n        /* \"#utility.yul\":6884:6931   */\n      mstore\n        /* \"#utility.yul\":6948:7079   */\n      tag_185\n        /* \"#utility.yul\":7074:7078   */\n      dup2\n        /* \"#utility.yul\":6948:7079   */\n      tag_114\n      jump\t// in\n    tag_185:\n        /* \"#utility.yul\":6940:7079   */\n      swap1\n      pop\n        /* \"#utility.yul\":6667:7086   */\n      swap2\n      swap1\n      pop\n      jump\t// out\n        /* \"#utility.yul\":7092:7272   */\n    tag_115:\n        /* \"#utility.yul\":7140:7217   */\n      0x4e487b7100000000000000000000000000000000000000000000000000000000\n        /* \"#utility.yul\":7137:7138   */\n      0x00\n        /* \"#utility.yul\":7130:7218   */\n      mstore\n        /* \"#utility.yul\":7237:7241   */\n      0x11\n        /* \"#utility.yul\":7234:7235   */\n      0x04\n        /* \"#utility.yul\":7227:7242   */\n      mstore\n        /* \"#utility.yul\":7261:7265   */\n      0x24\n        /* \"#utility.yul\":7258:7259   */\n      0x00\n        /* \"#utility.yul\":7251:7266   */\n      revert\n        /* \"#utility.yul\":7278:7469   */\n    tag_69:\n        /* \"#utility.yul\":7318:7321   */\n      0x00\n        /* \"#utility.yul\":7337:7357   */\n      tag_188\n        /* \"#utility.yul\":7355:7356   */\n      dup3\n        /* \"#utility.yul\":7337:7357   */\n      tag_100\n      jump\t// in\n    tag_188:\n        /* \"#utility.yul\":7332:7357   */\n      swap2\n      pop\n        /* \"#utility.yul\":7371:7391   */\n      tag_189\n        /* \"#utility.yul\":7389:7390   */\n      dup4\n        /* \"#utility.yul\":7371:7391   */\n      tag_100\n      jump\t// in\n    tag_189:\n        /* \"#utility.yul\":7366:7391   */\n      swap3\n      pop\n        /* \"#utility.yul\":7414:7415   */\n      dup3\n        /* \"#utility.yul\":7411:7412   */\n      dup3\n        /* \"#utility.yul\":7407:7416   */\n      add\n        /* \"#utility.yul\":7400:7416   */\n      swap1\n      pop\n        /* \"#utility.yul\":7435:7438   */\n      dup1\n        /* \"#utility.yul\":7432:7433   */\n      dup3\n        /* \"#utility.yul\":7429:7439   */\n      gt\n        /* \"#utility.yul\":7426:7462   */\n      iszero\n      tag_190\n      jumpi\n        /* \"#utility.yul\":7442:7460   */\n      tag_191\n      tag_115\n      jump\t// in\n    tag_191:\n        /* \"#utility.yul\":7426:7462   */\n    tag_190:\n        /* \"#utility.yul\":7278:7469   */\n      swap3\n      swap2\n      pop\n      pop\n      jump\t// out\n        /* \"#utility.yul\":7475:7885   */\n    tag_76:\n        /* \"#utility.yul\":7515:7522   */\n      0x00\n        /* \"#utility.yul\":7538:7558   */\n      tag_193\n        /* \"#utility.yul\":7556:7557   */\n      dup3\n        /* \"#utility.yul\":7538:7558   */\n      tag_100\n      jump\t// in\n    tag_193:\n        /* \"#utility.yul\":7533:7558   */\n      swap2\n      pop\n        /* \"#utility.yul\":7572:7592   */\n      tag_194\n        /* \"#utility.yul\":7590:7591   */\n      dup4\n        /* \"#utility.yul\":7572:7592   */\n      tag_100\n      jump\t// in\n    tag_194:\n        /* \"#utility.yul\":7567:7592   */\n      swap3\n      pop\n        /* \"#utility.yul\":7627:7628   */\n      dup3\n        /* \"#utility.yul\":7624:7625   */\n      dup3\n        /* \"#utility.yul\":7620:7629   */\n      mul\n        /* \"#utility.yul\":7649:7679   */\n      tag_195\n        /* \"#utility.yul\":7667:7678   */\n      dup2\n        /* \"#utility.yul\":7649:7679   */\n      tag_100\n      jump\t// in\n    tag_195:\n        /* \"#utility.yul\":7638:7679   */\n      swap2\n      pop\n        /* \"#utility.yul\":7828:7829   */\n      dup3\n        /* \"#utility.yul\":7819:7826   */\n      dup3\n        /* \"#utility.yul\":7815:7830   */\n      div\n        /* \"#utility.yul\":7812:7813   */\n      dup5\n        /* \"#utility.yul\":7809:7831   */\n      eq\n        /* \"#utility.yul\":7789:7790   */\n      dup4\n        /* \"#utility.yul\":7782:7791   */\n      iszero\n        /* \"#utility.yul\":7762:7845   */\n      or\n        /* \"#utility.yul\":7739:7878   */\n      tag_196\n      jumpi\n        /* \"#utility.yul\":7858:7876   */\n      tag_197\n      tag_115\n      jump\t// in\n    tag_197:\n        /* \"#utility.yul\":7739:7878   */\n    tag_196:\n        /* \"#utility.yul\":7523:7885   */\n      pop\n        /* \"#utility.yul\":7475:7885   */\n      swap3\n      swap2\n      pop\n      pop\n      jump\t// out\n        /* \"#utility.yul\":7891:8071   */\n    tag_116:\n        /* \"#utility.yul\":7939:8016   */\n      0x4e487b7100000000000000000000000000000000000000000000000000000000\n        /* \"#utility.yul\":7936:7937   */\n      0x00\n        /* \"#utility.yul\":7929:8017   */\n      mstore\n        /* \"#utility.yul\":8036:8040   */\n      0x12\n        /* \"#utility.yul\":8033:8034   */\n      0x04\n        /* \"#utility.yul\":8026:8041   */\n      mstore\n        /* \"#utility.yul\":8060:8064   */\n      0x24\n        /* \"#utility.yul\":8057:8058   */\n      0x00\n        /* \"#utility.yul\":8050:8065   */\n      revert\n        /* \"#utility.yul\":8077:8262   */\n    tag_78:\n        /* \"#utility.yul\":8117:8118   */\n      0x00\n        /* \"#utility.yul\":8134:8154   */\n      tag_200\n        /* \"#utility.yul\":8152:8153   */\n      dup3\n        /* \"#utility.yul\":8134:8154   */\n      tag_100\n      jump\t// in\n    tag_200:\n        /* \"#utility.yul\":8129:8154   */\n      swap2\n      pop\n        /* \"#utility.yul\":8168:8188   */\n      tag_201\n        /* \"#utility.yul\":8186:8187   */\n      dup4\n        /* \"#utility.yul\":8168:8188   */\n      tag_100\n      jump\t// in\n    tag_201:\n        /* \"#utility.yul\":8163:8188   */\n      swap3\n      pop\n        /* \"#utility.yul\":8207:8208   */\n      dup3\n        /* \"#utility.yul\":8197:8232   */\n      tag_202\n      jumpi\n        /* \"#utility.yul\":8212:8230   */\n      tag_203\n      tag_116\n      jump\t// in\n    tag_203:\n        /* \"#utility.yul\":8197:8232   */\n    tag_202:\n        /* \"#utility.yul\":8254:8255   */\n      dup3\n        /* \"#utility.yul\":8251:8252   */\n      dup3\n        /* \"#utility.yul\":8247:8256   */\n      div\n        /* \"#utility.yul\":8242:8256   */\n      swap1\n      pop\n        /* \"#utility.yul\":8077:8262   */\n      swap3\n      swap2\n      pop\n      pop\n      jump\t// out\n        /* \"#utility.yul\":8268:8373   */\n    tag_117:\n        /* \"#utility.yul\":8304:8311   */\n      0x00\n        /* \"#utility.yul\":8344:8366   */\n      0xffffffffffffffffffff\n        /* \"#utility.yul\":8337:8342   */\n      dup3\n        /* \"#utility.yul\":8333:8367   */\n      and\n        /* \"#utility.yul\":8322:8367   */\n      swap1\n      pop\n        /* \"#utility.yul\":8268:8373   */\n      swap2\n      swap1\n      pop\n      jump\t// out\n        /* \"#utility.yul\":8379:8499   */\n    tag_118:\n        /* \"#utility.yul\":8451:8474   */\n      tag_206\n        /* \"#utility.yul\":8468:8473   */\n      dup2\n        /* \"#utility.yul\":8451:8474   */\n      tag_117\n      jump\t// in\n    tag_206:\n        /* \"#utility.yul\":8444:8449   */\n      dup2\n        /* \"#utility.yul\":8441:8475   */\n      eq\n        /* \"#utility.yul\":8431:8493   */\n      tag_207\n      jumpi\n        /* \"#utility.yul\":8489:8490   */\n      0x00\n        /* \"#utility.yul\":8486:8487   */\n      dup1\n        /* \"#utility.yul\":8479:8491   */\n      revert\n        /* \"#utility.yul\":8431:8493   */\n    tag_207:\n        /* \"#utility.yul\":8379:8499   */\n      pop\n      jump\t// out\n        /* \"#utility.yul\":8505:8646   */\n    tag_119:\n        /* \"#utility.yul\":8561:8566   */\n      0x00\n        /* \"#utility.yul\":8592:8598   */\n      dup2\n        /* \"#utility.yul\":8586:8599   */\n      mload\n        /* \"#utility.yul\":8577:8599   */\n      swap1\n      pop\n        /* \"#utility.yul\":8608:8640   */\n      tag_209\n        /* \"#utility.yul\":8634:8639   */\n      dup2\n        /* \"#utility.yul\":8608:8640   */\n      tag_118\n      jump\t// in\n    tag_209:\n        /* \"#utility.yul\":8505:8646   */\n      swap3\n      swap2\n      pop\n      pop\n      jump\t// out\n        /* \"#utility.yul\":8652:8728   */\n    tag_120:\n        /* \"#utility.yul\":8688:8695   */\n      0x00\n        /* \"#utility.yul\":8717:8722   */\n      dup2\n        /* \"#utility.yul\":8706:8722   */\n      swap1\n      pop\n        /* \"#utility.yul\":8652:8728   */\n      swap2\n      swap1\n      pop\n      jump\t// out\n        /* \"#utility.yul\":8734:8854   */\n    tag_121:\n        /* \"#utility.yul\":8806:8829   */\n      tag_212\n        /* \"#utility.yul\":8823:8828   */\n      dup2\n        /* \"#utility.yul\":8806:8829   */\n      tag_120\n      jump\t// in\n    tag_212:\n        /* \"#utility.yul\":8799:8804   */\n      dup2\n        /* \"#utility.yul\":8796:8830   */\n      eq\n        /* \"#utility.yul\":8786:8848   */\n      tag_213\n      jumpi\n        /* \"#utility.yul\":8844:8845   */\n      0x00\n        /* \"#utility.yul\":8841:8842   */\n      dup1\n        /* \"#utility.yul\":8834:8846   */\n      revert\n        /* \"#utility.yul\":8786:8848   */\n    tag_213:\n        /* \"#utility.yul\":8734:8854   */\n      pop\n      jump\t// out\n        /* \"#utility.yul\":8860:9001   */\n    tag_122:\n        /* \"#utility.yul\":8916:8921   */\n      0x00\n        /* \"#utility.yul\":8947:8953   */\n      dup2\n        /* \"#utility.yul\":8941:8954   */\n      mload\n        /* \"#utility.yul\":8932:8954   */\n      swap1\n      pop\n        /* \"#utility.yul\":8963:8995   */\n      tag_215\n        /* \"#utility.yul\":8989:8994   */\n      dup2\n        /* \"#utility.yul\":8963:8995   */\n      tag_121\n      jump\t// in\n    tag_215:\n        /* \"#utility.yul\":8860:9001   */\n      swap3\n      swap2\n      pop\n      pop\n      jump\t// out\n        /* \"#utility.yul\":9007:9150   */\n    tag_123:\n        /* \"#utility.yul\":9064:9069   */\n      0x00\n        /* \"#utility.yul\":9095:9101   */\n      dup2\n        /* \"#utility.yul\":9089:9102   */\n      mload\n        /* \"#utility.yul\":9080:9102   */\n      swap1\n      pop\n        /* \"#utility.yul\":9111:9144   */\n      tag_217\n        /* \"#utility.yul\":9138:9143   */\n      dup2\n        /* \"#utility.yul\":9111:9144   */\n      tag_103\n      jump\t// in\n    tag_217:\n        /* \"#utility.yul\":9007:9150   */\n      swap3\n      swap2\n      pop\n      pop\n      jump\t// out\n        /* \"#utility.yul\":9156:10127   */\n    tag_83:\n        /* \"#utility.yul\":9259:9265   */\n      0x00\n        /* \"#utility.yul\":9267:9273   */\n      dup1\n        /* \"#utility.yul\":9275:9281   */\n      0x00\n        /* \"#utility.yul\":9283:9289   */\n      dup1\n        /* \"#utility.yul\":9291:9297   */\n      0x00\n        /* \"#utility.yul\":9340:9343   */\n      0xa0\n        /* \"#utility.yul\":9328:9337   */\n      dup7\n        /* \"#utility.yul\":9319:9326   */\n      dup9\n        /* \"#utility.yul\":9315:9338   */\n      sub\n        /* \"#utility.yul\":9311:9344   */\n      slt\n        /* \"#utility.yul\":9308:9428   */\n      iszero\n      tag_219\n      jumpi\n        /* \"#utility.yul\":9347:9426   */\n      tag_220\n      tag_94\n      jump\t// in\n    tag_220:\n        /* \"#utility.yul\":9308:9428   */\n    tag_219:\n        /* \"#utility.yul\":9467:9468   */\n      0x00\n        /* \"#utility.yul\":9492:9555   */\n      tag_221\n        /* \"#utility.yul\":9547:9554   */\n      dup9\n        /* \"#utility.yul\":9538:9544   */\n      dup3\n        /* \"#utility.yul\":9527:9536   */\n      dup10\n        /* \"#utility.yul\":9523:9545   */\n      add\n        /* \"#utility.yul\":9492:9555   */\n      tag_119\n      jump\t// in\n    tag_221:\n        /* \"#utility.yul\":9482:9555   */\n      swap6\n      pop\n        /* \"#utility.yul\":9438:9565   */\n      pop\n        /* \"#utility.yul\":9604:9606   */\n      0x20\n        /* \"#utility.yul\":9630:9693   */\n      tag_222\n        /* \"#utility.yul\":9685:9692   */\n      dup9\n        /* \"#utility.yul\":9676:9682   */\n      dup3\n        /* \"#utility.yul\":9665:9674   */\n      dup10\n        /* \"#utility.yul\":9661:9683   */\n      add\n        /* \"#utility.yul\":9630:9693   */\n      tag_122\n      jump\t// in\n    tag_222:\n        /* \"#utility.yul\":9620:9693   */\n      swap5\n      pop\n        /* \"#utility.yul\":9575:9703   */\n      pop\n        /* \"#utility.yul\":9742:9744   */\n      0x40\n        /* \"#utility.yul\":9768:9832   */\n      tag_223\n        /* \"#utility.yul\":9824:9831   */\n      dup9\n        /* \"#utility.yul\":9815:9821   */\n      dup3\n        /* \"#utility.yul\":9804:9813   */\n      dup10\n        /* \"#utility.yul\":9800:9822   */\n      add\n        /* \"#utility.yul\":9768:9832   */\n      tag_123\n      jump\t// in\n    tag_223:\n        /* \"#utility.yul\":9758:9832   */\n      swap4\n      pop\n        /* \"#utility.yul\":9713:9842   */\n      pop\n        /* \"#utility.yul\":9881:9883   */\n      0x60\n        /* \"#utility.yul\":9907:9971   */\n      tag_224\n        /* \"#utility.yul\":9963:9970   */\n      dup9\n        /* \"#utility.yul\":9954:9960   */\n      dup3\n        /* \"#utility.yul\":9943:9952   */\n      dup10\n        /* \"#utility.yul\":9939:9961   */\n      add\n        /* \"#utility.yul\":9907:9971   */\n      tag_123\n      jump\t// in\n    tag_224:\n        /* \"#utility.yul\":9897:9971   */\n      swap3\n      pop\n        /* \"#utility.yul\":9852:9981   */\n      pop\n        /* \"#utility.yul\":10020:10023   */\n      0x80\n        /* \"#utility.yul\":10047:10110   */\n      tag_225\n        /* \"#utility.yul\":10102:10109   */\n      dup9\n        /* \"#utility.yul\":10093:10099   */\n      dup3\n        /* \"#utility.yul\":10082:10091   */\n      dup10\n        /* \"#utility.yul\":10078:10100   */\n      add\n        /* \"#utility.yul\":10047:10110   */\n      tag_119\n      jump\t// in\n    tag_225:\n        /* \"#utility.yul\":10037:10110   */\n      swap2\n      pop\n        /* \"#utility.yul\":9991:10120   */\n      pop\n        /* \"#utility.yul\":9156:10127   */\n      swap3\n      swap6\n      pop\n      swap3\n      swap6\n      swap1\n      swap4\n      pop\n      jump\t// out\n        /* \"#utility.yul\":10133:10689   */\n    tag_85:\n        /* \"#utility.yul\":10172:10179   */\n      0x00\n        /* \"#utility.yul\":10195:10214   */\n      tag_227\n        /* \"#utility.yul\":10212:10213   */\n      dup3\n        /* \"#utility.yul\":10195:10214   */\n      tag_120\n      jump\t// in\n    tag_227:\n        /* \"#utility.yul\":10190:10214   */\n      swap2\n      pop\n        /* \"#utility.yul\":10228:10247   */\n      tag_228\n        /* \"#utility.yul\":10245:10246   */\n      dup4\n        /* \"#utility.yul\":10228:10247   */\n      tag_120\n      jump\t// in\n    tag_228:\n        /* \"#utility.yul\":10223:10247   */\n      swap3\n      pop\n        /* \"#utility.yul\":10282:10283   */\n      dup3\n        /* \"#utility.yul\":10279:10280   */\n      dup3\n        /* \"#utility.yul\":10275:10284   */\n      mul\n        /* \"#utility.yul\":10304:10333   */\n      tag_229\n        /* \"#utility.yul\":10321:10332   */\n      dup2\n        /* \"#utility.yul\":10304:10333   */\n      tag_120\n      jump\t// in\n    tag_229:\n        /* \"#utility.yul\":10293:10333   */\n      swap2\n      pop\n        /* \"#utility.yul\":10391:10457   */\n      0x8000000000000000000000000000000000000000000000000000000000000000\n        /* \"#utility.yul\":10388:10389   */\n      dup5\n        /* \"#utility.yul\":10385:10458   */\n      eq\n        /* \"#utility.yul\":10381:10382   */\n      0x00\n        /* \"#utility.yul\":10378:10379   */\n      dup5\n        /* \"#utility.yul\":10374:10383   */\n      slt\n        /* \"#utility.yul\":10370:10459   */\n      and\n        /* \"#utility.yul\":10367:10482   */\n      iszero\n      tag_230\n      jumpi\n        /* \"#utility.yul\":10462:10480   */\n      tag_231\n      tag_115\n      jump\t// in\n    tag_231:\n        /* \"#utility.yul\":10367:10482   */\n    tag_230:\n        /* \"#utility.yul\":10632:10633   */\n      dup3\n        /* \"#utility.yul\":10623:10630   */\n      dup3\n        /* \"#utility.yul\":10618:10634   */\n      sdiv\n        /* \"#utility.yul\":10615:10616   */\n      dup5\n        /* \"#utility.yul\":10612:10635   */\n      eq\n        /* \"#utility.yul\":10592:10593   */\n      dup4\n        /* \"#utility.yul\":10585:10594   */\n      iszero\n        /* \"#utility.yul\":10565:10649   */\n      or\n        /* \"#utility.yul\":10542:10682   */\n      tag_232\n      jumpi\n        /* \"#utility.yul\":10662:10680   */\n      tag_233\n      tag_115\n      jump\t// in\n    tag_233:\n        /* \"#utility.yul\":10542:10682   */\n    tag_232:\n        /* \"#utility.yul\":10180:10689   */\n      pop\n        /* \"#utility.yul\":10133:10689   */\n      swap3\n      swap2\n      pop\n      pop\n      jump\t// out\n\n    auxdata: 0xa264697066735822122009b6e2098469d8477a54d80aa840b8aab51a29683ffa53b28542cac67a7d1a9e64736f6c634300081a0033\n}\n",
				"bytecode": {
					"linkReferences": {},
					"object": "6080604052674563918244f40000600255348015601a575f80fd5b503360035f6101000a81548173ffffffffffffffffffffffffffffffffffffffff021916908373ffffffffffffffffffffffffffffffffffffffff160217905550610c6f806100685f395ff3fe608060405260043610610054575f3560e01c80633ccfd60b146100585780633e47d6f31461006e57806351b80e41146100aa5780638da5cb5b146100d4578063b60d4288146100fe578063dc0d3dff14610108575b5f80fd5b348015610063575f80fd5b5061006c610144565b005b348015610079575f80fd5b50610094600480360381019061008f919061070c565b61037b565b6040516100a1919061074f565b60405180910390f35b3480156100b5575f80fd5b506100be61038f565b6040516100cb919061074f565b60405180910390f35b3480156100df575f80fd5b506100e8610395565b6040516100f59190610777565b60405180910390f35b6101066103ba565b005b348015610113575f80fd5b5061012e600480360381019061012991906107ba565b6104f1565b60405161013b9190610777565b60405180910390f35b60035f9054906101000a900473ffffffffffffffffffffffffffffffffffffffff1673ffffffffffffffffffffffffffffffffffffffff163373ffffffffffffffffffffffffffffffffffffffff16146101d3576040517f08c379a00000000000000000000000000000000000000000000000000000000081526004016101ca9061083f565b60405180910390fd5b5f5b600180549050811015610270575f600182815481106101f7576101f661085d565b5b905f5260205f20015f9054906101000a900473ffffffffffffffffffffffffffffffffffffffff1690505f805f8373ffffffffffffffffffffffffffffffffffffffff1673ffffffffffffffffffffffffffffffffffffffff1681526020019081526020015f20819055505080806001019150506101d5565b505f67ffffffffffffffff81111561028b5761028a61088a565b5b6040519080825280602002602001820160405280156102b95781602001602082028036833780820191505090505b50600190805190602001906102cf92919061060c565b505f3373ffffffffffffffffffffffffffffffffffffffff16476040516102f5906108e4565b5f6040518083038185875af1925050503d805f811461032f576040519150601f19603f3d011682016040523d82523d5f602084013e610334565b606091505b5050905080610378576040517f08c379a000000000000000000000000000000000000000000000000000000000815260040161036f90610942565b60405180910390fd5b50565b5f602052805f5260405f205f915090505481565b60025481565b60035f9054906101000a900473ffffffffffffffffffffffffffffffffffffffff1681565b6002546103c63461052c565b1015610407576040517f08c379a00000000000000000000000000000000000000000000000000000000081526004016103fe906109aa565b60405180910390fd5b600133908060018154018082558091505060019003905f5260205f20015f9091909190916101000a81548173ffffffffffffffffffffffffffffffffffffffff021916908373ffffffffffffffffffffffffffffffffffffffff160217905550345f803373ffffffffffffffffffffffffffffffffffffffff1673ffffffffffffffffffffffffffffffffffffffff1681526020019081526020015f20546104af91906109f5565b5f803373ffffffffffffffffffffffffffffffffffffffff1673ffffffffffffffffffffffffffffffffffffffff1681526020019081526020015f2081905550565b60018181548110610500575f80fd5b905f5260205f20015f915054906101000a900473ffffffffffffffffffffffffffffffffffffffff1681565b5f80610536610564565b90505f670de0b6b3a7640000848361054e9190610a28565b6105589190610a96565b90508092505050919050565b5f8073694aa1769357215de4fac081bf1f309adc32530690505f8173ffffffffffffffffffffffffffffffffffffffff1663feaf968c6040518163ffffffff1660e01b815260040160a060405180830381865afa1580156105c7573d5f803e3d5ffd5b505050506040513d601f19601f820116820180604052508101906105eb9190610b4c565b505050915050670de0b6b3a7640000816106059190610bc3565b9250505090565b828054828255905f5260205f20908101928215610682579160200282015b82811115610681578251825f6101000a81548173ffffffffffffffffffffffffffffffffffffffff021916908373ffffffffffffffffffffffffffffffffffffffff1602179055509160200191906001019061062a565b5b50905061068f9190610693565b5090565b5b808211156106aa575f815f905550600101610694565b5090565b5f80fd5b5f73ffffffffffffffffffffffffffffffffffffffff82169050919050565b5f6106db826106b2565b9050919050565b6106eb816106d1565b81146106f5575f80fd5b50565b5f81359050610706816106e2565b92915050565b5f60208284031215610721576107206106ae565b5b5f61072e848285016106f8565b91505092915050565b5f819050919050565b61074981610737565b82525050565b5f6020820190506107625f830184610740565b92915050565b610771816106d1565b82525050565b5f60208201905061078a5f830184610768565b92915050565b61079981610737565b81146107a3575f80fd5b50565b5f813590506107b481610790565b92915050565b5f602082840312156107cf576107ce6106ae565b5b5f6107dc848285016107a6565b91505092915050565b5f82825260208201905092915050565b7f53656e646572206973206e6f74204f776e6572210000000000000000000000005f82015250565b5f6108296014836107e5565b9150610834826107f5565b602082019050919050565b5f6020820190508181035f8301526108568161081d565b9050919050565b7f4e487b71000000000000000000000000000000000000000000000000000000005f52603260045260245ffd5b7f4e487b71000000000000000000000000000000000000000000000000000000005f52604160045260245ffd5b5f81905092915050565b50565b5f6108cf5f836108b7565b91506108da826108c1565b5f82019050919050565b5f6108ee826108c4565b9150819050919050565b7f43616c6c2046616c6975726500000000000000000000000000000000000000005f82015250565b5f61092c600c836107e5565b9150610937826108f8565b602082019050919050565b5f6020820190508181035f83015261095981610920565b9050919050565b7f6469646e742073656e6420656e6f7567682065746800000000000000000000005f82015250565b5f6109946015836107e5565b915061099f82610960565b602082019050919050565b5f6020820190508181035f8301526109c181610988565b9050919050565b7f4e487b71000000000000000000000000000000000000000000000000000000005f52601160045260245ffd5b5f6109ff82610737565b9150610a0a83610737565b9250828201905080821115610a2257610a216109c8565b5b92915050565b5f610a3282610737565b9150610a3d83610737565b9250828202610a4b81610737565b91508282048414831517610a6257610a616109c8565b5b5092915050565b7f4e487b71000000000000000000000000000000000000000000000000000000005f52601260045260245ffd5b5f610aa082610737565b9150610aab83610737565b925082610abb57610aba610a69565b5b828204905092915050565b5f69ffffffffffffffffffff82169050919050565b610ae481610ac6565b8114610aee575f80fd5b50565b5f81519050610aff81610adb565b92915050565b5f819050919050565b610b1781610b05565b8114610b21575f80fd5b50565b5f81519050610b3281610b0e565b92915050565b5f81519050610b4681610790565b92915050565b5f805f805f60a08688031215610b6557610b646106ae565b5b5f610b7288828901610af1565b9550506020610b8388828901610b24565b9450506040610b9488828901610b38565b9350506060610ba588828901610b38565b9250506080610bb688828901610af1565b9150509295509295909350565b5f610bcd82610b05565b9150610bd883610b05565b9250828202610be681610b05565b91507f800000000000000000000000000000000000000000000000000000000000000084145f84121615610c1d57610c1c6109c8565b5b8282058414831517610c3257610c316109c8565b5b509291505056fea264697066735822122009b6e2098469d8477a54d80aa840b8aab51a29683ffa53b28542cac67a7d1a9e64736f6c634300081a0033",
					"opcodes": "PUSH1 0x80 PUSH1 0x40 MSTORE PUSH8 0x4563918244F40000 PUSH1 0x2 SSTORE CALLVALUE DUP1 ISZERO PUSH1 0x1A JUMPI PUSH0 DUP1 REVERT JUMPDEST POP CALLER PUSH1 0x3 PUSH0 PUSH2 0x100 EXP DUP2 SLOAD DUP2 PUSH20 0xFFFFFFFFFFFFFFFFFFFFFFFFFFFFFFFFFFFFFFFF MUL NOT AND SWAP1 DUP4 PUSH20 0xFFFFFFFFFFFFFFFFFFFFFFFFFFFFFFFFFFFFFFFF AND MUL OR SWAP1 SSTORE POP PUSH2 0xC6F DUP1 PUSH2 0x68 PUSH0 CODECOPY PUSH0 RETURN INVALID PUSH1 0x80 PUSH1 0x40 MSTORE PUSH1 0x4 CALLDATASIZE LT PUSH2 0x54 JUMPI PUSH0 CALLDATALOAD PUSH1 0xE0 SHR DUP1 PUSH4 0x3CCFD60B EQ PUSH2 0x58 JUMPI DUP1 PUSH4 0x3E47D6F3 EQ PUSH2 0x6E JUMPI DUP1 PUSH4 0x51B80E41 EQ PUSH2 0xAA JUMPI DUP1 PUSH4 0x8DA5CB5B EQ PUSH2 0xD4 JUMPI DUP1 PUSH4 0xB60D4288 EQ PUSH2 0xFE JUMPI DUP1 PUSH4 0xDC0D3DFF EQ PUSH2 0x108 JUMPI JUMPDEST PUSH0 DUP1 REVERT JUMPDEST CALLVALUE DUP1 ISZERO PUSH2 0x63 JUMPI PUSH0 DUP1 REVERT JUMPDEST POP PUSH2 0x6C PUSH2 0x144 JUMP JUMPDEST STOP JUMPDEST CALLVALUE DUP1 ISZERO PUSH2 0x79 JUMPI PUSH0 DUP1 REVERT JUMPDEST POP PUSH2 0x94 PUSH1 0x4 DUP1 CALLDATASIZE SUB DUP2 ADD SWAP1 PUSH2 0x8F SWAP2 SWAP1 PUSH2 0x70C JUMP JUMPDEST PUSH2 0x37B JUMP JUMPDEST PUSH1 0x40 MLOAD PUSH2 0xA1 SWAP2 SWAP1 PUSH2 0x74F JUMP JUMPDEST PUSH1 0x40 MLOAD DUP1 SWAP2 SUB SWAP1 RETURN JUMPDEST CALLVALUE DUP1 ISZERO PUSH2 0xB5 JUMPI PUSH0 DUP1 REVERT JUMPDEST POP PUSH2 0xBE PUSH2 0x38F JUMP JUMPDEST PUSH1 0x40 MLOAD PUSH2 0xCB SWAP2 SWAP1 PUSH2 0x74F JUMP JUMPDEST PUSH1 0x40 MLOAD DUP1 SWAP2 SUB SWAP1 RETURN JUMPDEST CALLVALUE DUP1 ISZERO PUSH2 0xDF JUMPI PUSH0 DUP1 REVERT JUMPDEST POP PUSH2 0xE8 PUSH2 0x395 JUMP JUMPDEST PUSH1 0x40 MLOAD PUSH2 0xF5 SWAP2 SWAP1 PUSH2 0x777 JUMP JUMPDEST PUSH1 0x40 MLOAD DUP1 SWAP2 SUB SWAP1 RETURN JUMPDEST PUSH2 0x106 PUSH2 0x3BA JUMP JUMPDEST STOP JUMPDEST CALLVALUE DUP1 ISZERO PUSH2 0x113 JUMPI PUSH0 DUP1 REVERT JUMPDEST POP PUSH2 0x12E PUSH1 0x4 DUP1 CALLDATASIZE SUB DUP2 ADD SWAP1 PUSH2 0x129 SWAP2 SWAP1 PUSH2 0x7BA JUMP JUMPDEST PUSH2 0x4F1 JUMP JUMPDEST PUSH1 0x40 MLOAD PUSH2 0x13B SWAP2 SWAP1 PUSH2 0x777 JUMP JUMPDEST PUSH1 0x40 MLOAD DUP1 SWAP2 SUB SWAP1 RETURN JUMPDEST PUSH1 0x3 PUSH0 SWAP1 SLOAD SWAP1 PUSH2 0x100 EXP SWAP1 DIV PUSH20 0xFFFFFFFFFFFFFFFFFFFFFFFFFFFFFFFFFFFFFFFF AND PUSH20 0xFFFFFFFFFFFFFFFFFFFFFFFFFFFFFFFFFFFFFFFF AND CALLER PUSH20 0xFFFFFFFFFFFFFFFFFFFFFFFFFFFFFFFFFFFFFFFF AND EQ PUSH2 0x1D3 JUMPI PUSH1 0x40 MLOAD PUSH32 0x8C379A000000000000000000000000000000000000000000000000000000000 DUP2 MSTORE PUSH1 0x4 ADD PUSH2 0x1CA SWAP1 PUSH2 0x83F JUMP JUMPDEST PUSH1 0x40 MLOAD DUP1 SWAP2 SUB SWAP1 REVERT JUMPDEST PUSH0 JUMPDEST PUSH1 0x1 DUP1 SLOAD SWAP1 POP DUP2 LT ISZERO PUSH2 0x270 JUMPI PUSH0 PUSH1 0x1 DUP3 DUP2 SLOAD DUP2 LT PUSH2 0x1F7 JUMPI PUSH2 0x1F6 PUSH2 0x85D JUMP JUMPDEST JUMPDEST SWAP1 PUSH0 MSTORE PUSH1 0x20 PUSH0 KECCAK256 ADD PUSH0 SWAP1 SLOAD SWAP1 PUSH2 0x100 EXP SWAP1 DIV PUSH20 0xFFFFFFFFFFFFFFFFFFFFFFFFFFFFFFFFFFFFFFFF AND SWAP1 POP PUSH0 DUP1 PUSH0 DUP4 PUSH20 0xFFFFFFFFFFFFFFFFFFFFFFFFFFFFFFFFFFFFFFFF AND PUSH20 0xFFFFFFFFFFFFFFFFFFFFFFFFFFFFFFFFFFFFFFFF AND DUP2 MSTORE PUSH1 0x20 ADD SWAP1 DUP2 MSTORE PUSH1 0x20 ADD PUSH0 KECCAK256 DUP2 SWAP1 SSTORE POP POP DUP1 DUP1 PUSH1 0x1 ADD SWAP2 POP POP PUSH2 0x1D5 JUMP JUMPDEST POP PUSH0 PUSH8 0xFFFFFFFFFFFFFFFF DUP2 GT ISZERO PUSH2 0x28B JUMPI PUSH2 0x28A PUSH2 0x88A JUMP JUMPDEST JUMPDEST PUSH1 0x40 MLOAD SWAP1 DUP1 DUP3 MSTORE DUP1 PUSH1 0x20 MUL PUSH1 0x20 ADD DUP3 ADD PUSH1 0x40 MSTORE DUP1 ISZERO PUSH2 0x2B9 JUMPI DUP2 PUSH1 0x20 ADD PUSH1 0x20 DUP3 MUL DUP1 CALLDATASIZE DUP4 CALLDATACOPY DUP1 DUP3 ADD SWAP2 POP POP SWAP1 POP JUMPDEST POP PUSH1 0x1 SWAP1 DUP1 MLOAD SWAP1 PUSH1 0x20 ADD SWAP1 PUSH2 0x2CF SWAP3 SWAP2 SWAP1 PUSH2 0x60C JUMP JUMPDEST POP PUSH0 CALLER PUSH20 0xFFFFFFFFFFFFFFFFFFFFFFFFFFFFFFFFFFFFFFFF AND SELFBALANCE PUSH1 0x40 MLOAD PUSH2 0x2F5 SWAP1 PUSH2 0x8E4 JUMP JUMPDEST PUSH0 PUSH1 0x40 MLOAD DUP1 DUP4 SUB DUP2 DUP6 DUP8 GAS CALL SWAP3 POP POP POP RETURNDATASIZE DUP1 PUSH0 DUP2 EQ PUSH2 0x32F JUMPI PUSH1 0x40 MLOAD SWAP2 POP PUSH1 0x1F NOT PUSH1 0x3F RETURNDATASIZE ADD AND DUP3 ADD PUSH1 0x40 MSTORE RETURNDATASIZE DUP3 MSTORE RETURNDATASIZE PUSH0 PUSH1 0x20 DUP5 ADD RETURNDATACOPY PUSH2 0x334 JUMP JUMPDEST PUSH1 0x60 SWAP2 POP JUMPDEST POP POP SWAP1 POP DUP1 PUSH2 0x378 JUMPI PUSH1 0x40 MLOAD PUSH32 0x8C379A000000000000000000000000000000000000000000000000000000000 DUP2 MSTORE PUSH1 0x4 ADD PUSH2 0x36F SWAP1 PUSH2 0x942 JUMP JUMPDEST PUSH1 0x40 MLOAD DUP1 SWAP2 SUB SWAP1 REVERT JUMPDEST POP JUMP JUMPDEST PUSH0 PUSH1 0x20 MSTORE DUP1 PUSH0 MSTORE PUSH1 0x40 PUSH0 KECCAK256 PUSH0 SWAP2 POP SWAP1 POP SLOAD DUP2 JUMP JUMPDEST PUSH1 0x2 SLOAD DUP2 JUMP JUMPDEST PUSH1 0x3 PUSH0 SWAP1 SLOAD SWAP1 PUSH2 0x100 EXP SWAP1 DIV PUSH20 0xFFFFFFFFFFFFFFFFFFFFFFFFFFFFFFFFFFFFFFFF AND DUP2 JUMP JUMPDEST PUSH1 0x2 SLOAD PUSH2 0x3C6 CALLVALUE PUSH2 0x52C JUMP JUMPDEST LT ISZERO PUSH2 0x407 JUMPI PUSH1 0x40 MLOAD PUSH32 0x8C379A000000000000000000000000000000000000000000000000000000000 DUP2 MSTORE PUSH1 0x4 ADD PUSH2 0x3FE SWAP1 PUSH2 0x9AA JUMP JUMPDEST PUSH1 0x40 MLOAD DUP1 SWAP2 SUB SWAP1 REVERT JUMPDEST PUSH1 0x1 CALLER SWAP1 DUP1 PUSH1 0x1 DUP2 SLOAD ADD DUP1 DUP3 SSTORE DUP1 SWAP2 POP POP PUSH1 0x1 SWAP1 SUB SWAP1 PUSH0 MSTORE PUSH1 0x20 PUSH0 KECCAK256 ADD PUSH0 SWAP1 SWAP2 SWAP1 SWAP2 SWAP1 SWAP2 PUSH2 0x100 EXP DUP2 SLOAD DUP2 PUSH20 0xFFFFFFFFFFFFFFFFFFFFFFFFFFFFFFFFFFFFFFFF MUL NOT AND SWAP1 DUP4 PUSH20 0xFFFFFFFFFFFFFFFFFFFFFFFFFFFFFFFFFFFFFFFF AND MUL OR SWAP1 SSTORE POP CALLVALUE PUSH0 DUP1 CALLER PUSH20 0xFFFFFFFFFFFFFFFFFFFFFFFFFFFFFFFFFFFFFFFF AND PUSH20 0xFFFFFFFFFFFFFFFFFFFFFFFFFFFFFFFFFFFFFFFF AND DUP2 MSTORE PUSH1 0x20 ADD SWAP1 DUP2 MSTORE PUSH1 0x20 ADD PUSH0 KECCAK256 SLOAD PUSH2 0x4AF SWAP2 SWAP1 PUSH2 0x9F5 JUMP JUMPDEST PUSH0 DUP1 CALLER PUSH20 0xFFFFFFFFFFFFFFFFFFFFFFFFFFFFFFFFFFFFFFFF AND PUSH20 0xFFFFFFFFFFFFFFFFFFFFFFFFFFFFFFFFFFFFFFFF AND DUP2 MSTORE PUSH1 0x20 ADD SWAP1 DUP2 MSTORE PUSH1 0x20 ADD PUSH0 KECCAK256 DUP2 SWAP1 SSTORE POP JUMP JUMPDEST PUSH1 0x1 DUP2 DUP2 SLOAD DUP2 LT PUSH2 0x500 JUMPI PUSH0 DUP1 REVERT JUMPDEST SWAP1 PUSH0 MSTORE PUSH1 0x20 PUSH0 KECCAK256 ADD PUSH0 SWAP2 POP SLOAD SWAP1 PUSH2 0x100 EXP SWAP1 DIV PUSH20 0xFFFFFFFFFFFFFFFFFFFFFFFFFFFFFFFFFFFFFFFF AND DUP2 JUMP JUMPDEST PUSH0 DUP1 PUSH2 0x536 PUSH2 0x564 JUMP JUMPDEST SWAP1 POP PUSH0 PUSH8 0xDE0B6B3A7640000 DUP5 DUP4 PUSH2 0x54E SWAP2 SWAP1 PUSH2 0xA28 JUMP JUMPDEST PUSH2 0x558 SWAP2 SWAP1 PUSH2 0xA96 JUMP JUMPDEST SWAP1 POP DUP1 SWAP3 POP POP POP SWAP2 SWAP1 POP JUMP JUMPDEST PUSH0 DUP1 PUSH20 0x694AA1769357215DE4FAC081BF1F309ADC325306 SWAP1 POP PUSH0 DUP2 PUSH20 0xFFFFFFFFFFFFFFFFFFFFFFFFFFFFFFFFFFFFFFFF AND PUSH4 0xFEAF968C PUSH1 0x40 MLOAD DUP2 PUSH4 0xFFFFFFFF AND PUSH1 0xE0 SHL DUP2 MSTORE PUSH1 0x4 ADD PUSH1 0xA0 PUSH1 0x40 MLOAD DUP1 DUP4 SUB DUP2 DUP7 GAS STATICCALL ISZERO DUP1 ISZERO PUSH2 0x5C7 JUMPI RETURNDATASIZE PUSH0 DUP1 RETURNDATACOPY RETURNDATASIZE PUSH0 REVERT JUMPDEST POP POP POP POP PUSH1 0x40 MLOAD RETURNDATASIZE PUSH1 0x1F NOT PUSH1 0x1F DUP3 ADD AND DUP3 ADD DUP1 PUSH1 0x40 MSTORE POP DUP2 ADD SWAP1 PUSH2 0x5EB SWAP2 SWAP1 PUSH2 0xB4C JUMP JUMPDEST POP POP POP SWAP2 POP POP PUSH8 0xDE0B6B3A7640000 DUP2 PUSH2 0x605 SWAP2 SWAP1 PUSH2 0xBC3 JUMP JUMPDEST SWAP3 POP POP POP SWAP1 JUMP JUMPDEST DUP3 DUP1 SLOAD DUP3 DUP3 SSTORE SWAP1 PUSH0 MSTORE PUSH1 0x20 PUSH0 KECCAK256 SWAP1 DUP2 ADD SWAP3 DUP3 ISZERO PUSH2 0x682 JUMPI SWAP2 PUSH1 0x20 MUL DUP3 ADD JUMPDEST DUP3 DUP2 GT ISZERO PUSH2 0x681 JUMPI DUP3 MLOAD DUP3 PUSH0 PUSH2 0x100 EXP DUP2 SLOAD DUP2 PUSH20 0xFFFFFFFFFFFFFFFFFFFFFFFFFFFFFFFFFFFFFFFF MUL NOT AND SWAP1 DUP4 PUSH20 0xFFFFFFFFFFFFFFFFFFFFFFFFFFFFFFFFFFFFFFFF AND MUL OR SWAP1 SSTORE POP SWAP2 PUSH1 0x20 ADD SWAP2 SWAP1 PUSH1 0x1 ADD SWAP1 PUSH2 0x62A JUMP JUMPDEST JUMPDEST POP SWAP1 POP PUSH2 0x68F SWAP2 SWAP1 PUSH2 0x693 JUMP JUMPDEST POP SWAP1 JUMP JUMPDEST JUMPDEST DUP1 DUP3 GT ISZERO PUSH2 0x6AA JUMPI PUSH0 DUP2 PUSH0 SWAP1 SSTORE POP PUSH1 0x1 ADD PUSH2 0x694 JUMP JUMPDEST POP SWAP1 JUMP JUMPDEST PUSH0 DUP1 REVERT JUMPDEST PUSH0 PUSH20 0xFFFFFFFFFFFFFFFFFFFFFFFFFFFFFFFFFFFFFFFF DUP3 AND SWAP1 POP SWAP2 SWAP1 POP JUMP JUMPDEST PUSH0 PUSH2 0x6DB DUP3 PUSH2 0x6B2 JUMP JUMPDEST SWAP1 POP SWAP2 SWAP1 POP JUMP JUMPDEST PUSH2 0x6EB DUP2 PUSH2 0x6D1 JUMP JUMPDEST DUP2 EQ PUSH2 0x6F5 JUMPI PUSH0 DUP1 REVERT JUMPDEST POP JUMP JUMPDEST PUSH0 DUP2 CALLDATALOAD SWAP1 POP PUSH2 0x706 DUP2 PUSH2 0x6E2 JUMP JUMPDEST SWAP3 SWAP2 POP POP JUMP JUMPDEST PUSH0 PUSH1 0x20 DUP3 DUP5 SUB SLT ISZERO PUSH2 0x721 JUMPI PUSH2 0x720 PUSH2 0x6AE JUMP JUMPDEST JUMPDEST PUSH0 PUSH2 0x72E DUP5 DUP3 DUP6 ADD PUSH2 0x6F8 JUMP JUMPDEST SWAP2 POP POP SWAP3 SWAP2 POP POP JUMP JUMPDEST PUSH0 DUP2 SWAP1 POP SWAP2 SWAP1 POP JUMP JUMPDEST PUSH2 0x749 DUP2 PUSH2 0x737 JUMP JUMPDEST DUP3 MSTORE POP POP JUMP JUMPDEST PUSH0 PUSH1 0x20 DUP3 ADD SWAP1 POP PUSH2 0x762 PUSH0 DUP4 ADD DUP5 PUSH2 0x740 JUMP JUMPDEST SWAP3 SWAP2 POP POP JUMP JUMPDEST PUSH2 0x771 DUP2 PUSH2 0x6D1 JUMP JUMPDEST DUP3 MSTORE POP POP JUMP JUMPDEST PUSH0 PUSH1 0x20 DUP3 ADD SWAP1 POP PUSH2 0x78A PUSH0 DUP4 ADD DUP5 PUSH2 0x768 JUMP JUMPDEST SWAP3 SWAP2 POP POP JUMP JUMPDEST PUSH2 0x799 DUP2 PUSH2 0x737 JUMP JUMPDEST DUP2 EQ PUSH2 0x7A3 JUMPI PUSH0 DUP1 REVERT JUMPDEST POP JUMP JUMPDEST PUSH0 DUP2 CALLDATALOAD SWAP1 POP PUSH2 0x7B4 DUP2 PUSH2 0x790 JUMP JUMPDEST SWAP3 SWAP2 POP POP JUMP JUMPDEST PUSH0 PUSH1 0x20 DUP3 DUP5 SUB SLT ISZERO PUSH2 0x7CF JUMPI PUSH2 0x7CE PUSH2 0x6AE JUMP JUMPDEST JUMPDEST PUSH0 PUSH2 0x7DC DUP5 DUP3 DUP6 ADD PUSH2 0x7A6 JUMP JUMPDEST SWAP2 POP POP SWAP3 SWAP2 POP POP JUMP JUMPDEST PUSH0 DUP3 DUP3 MSTORE PUSH1 0x20 DUP3 ADD SWAP1 POP SWAP3 SWAP2 POP POP JUMP JUMPDEST PUSH32 0x53656E646572206973206E6F74204F776E657221000000000000000000000000 PUSH0 DUP3 ADD MSTORE POP JUMP JUMPDEST PUSH0 PUSH2 0x829 PUSH1 0x14 DUP4 PUSH2 0x7E5 JUMP JUMPDEST SWAP2 POP PUSH2 0x834 DUP3 PUSH2 0x7F5 JUMP JUMPDEST PUSH1 0x20 DUP3 ADD SWAP1 POP SWAP2 SWAP1 POP JUMP JUMPDEST PUSH0 PUSH1 0x20 DUP3 ADD SWAP1 POP DUP2 DUP2 SUB PUSH0 DUP4 ADD MSTORE PUSH2 0x856 DUP2 PUSH2 0x81D JUMP JUMPDEST SWAP1 POP SWAP2 SWAP1 POP JUMP JUMPDEST PUSH32 0x4E487B7100000000000000000000000000000000000000000000000000000000 PUSH0 MSTORE PUSH1 0x32 PUSH1 0x4 MSTORE PUSH1 0x24 PUSH0 REVERT JUMPDEST PUSH32 0x4E487B7100000000000000000000000000000000000000000000000000000000 PUSH0 MSTORE PUSH1 0x41 PUSH1 0x4 MSTORE PUSH1 0x24 PUSH0 REVERT JUMPDEST PUSH0 DUP2 SWAP1 POP SWAP3 SWAP2 POP POP JUMP JUMPDEST POP JUMP JUMPDEST PUSH0 PUSH2 0x8CF PUSH0 DUP4 PUSH2 0x8B7 JUMP JUMPDEST SWAP2 POP PUSH2 0x8DA DUP3 PUSH2 0x8C1 JUMP JUMPDEST PUSH0 DUP3 ADD SWAP1 POP SWAP2 SWAP1 POP JUMP JUMPDEST PUSH0 PUSH2 0x8EE DUP3 PUSH2 0x8C4 JUMP JUMPDEST SWAP2 POP DUP2 SWAP1 POP SWAP2 SWAP1 POP JUMP JUMPDEST PUSH32 0x43616C6C2046616C697572650000000000000000000000000000000000000000 PUSH0 DUP3 ADD MSTORE POP JUMP JUMPDEST PUSH0 PUSH2 0x92C PUSH1 0xC DUP4 PUSH2 0x7E5 JUMP JUMPDEST SWAP2 POP PUSH2 0x937 DUP3 PUSH2 0x8F8 JUMP JUMPDEST PUSH1 0x20 DUP3 ADD SWAP1 POP SWAP2 SWAP1 POP JUMP JUMPDEST PUSH0 PUSH1 0x20 DUP3 ADD SWAP1 POP DUP2 DUP2 SUB PUSH0 DUP4 ADD MSTORE PUSH2 0x959 DUP2 PUSH2 0x920 JUMP JUMPDEST SWAP1 POP SWAP2 SWAP1 POP JUMP JUMPDEST PUSH32 0x6469646E742073656E6420656E6F756768206574680000000000000000000000 PUSH0 DUP3 ADD MSTORE POP JUMP JUMPDEST PUSH0 PUSH2 0x994 PUSH1 0x15 DUP4 PUSH2 0x7E5 JUMP JUMPDEST SWAP2 POP PUSH2 0x99F DUP3 PUSH2 0x960 JUMP JUMPDEST PUSH1 0x20 DUP3 ADD SWAP1 POP SWAP2 SWAP1 POP JUMP JUMPDEST PUSH0 PUSH1 0x20 DUP3 ADD SWAP1 POP DUP2 DUP2 SUB PUSH0 DUP4 ADD MSTORE PUSH2 0x9C1 DUP2 PUSH2 0x988 JUMP JUMPDEST SWAP1 POP SWAP2 SWAP1 POP JUMP JUMPDEST PUSH32 0x4E487B7100000000000000000000000000000000000000000000000000000000 PUSH0 MSTORE PUSH1 0x11 PUSH1 0x4 MSTORE PUSH1 0x24 PUSH0 REVERT JUMPDEST PUSH0 PUSH2 0x9FF DUP3 PUSH2 0x737 JUMP JUMPDEST SWAP2 POP PUSH2 0xA0A DUP4 PUSH2 0x737 JUMP JUMPDEST SWAP3 POP DUP3 DUP3 ADD SWAP1 POP DUP1 DUP3 GT ISZERO PUSH2 0xA22 JUMPI PUSH2 0xA21 PUSH2 0x9C8 JUMP JUMPDEST JUMPDEST SWAP3 SWAP2 POP POP JUMP JUMPDEST PUSH0 PUSH2 0xA32 DUP3 PUSH2 0x737 JUMP JUMPDEST SWAP2 POP PUSH2 0xA3D DUP4 PUSH2 0x737 JUMP JUMPDEST SWAP3 POP DUP3 DUP3 MUL PUSH2 0xA4B DUP2 PUSH2 0x737 JUMP JUMPDEST SWAP2 POP DUP3 DUP3 DIV DUP5 EQ DUP4 ISZERO OR PUSH2 0xA62 JUMPI PUSH2 0xA61 PUSH2 0x9C8 JUMP JUMPDEST JUMPDEST POP SWAP3 SWAP2 POP POP JUMP JUMPDEST PUSH32 0x4E487B7100000000000000000000000000000000000000000000000000000000 PUSH0 MSTORE PUSH1 0x12 PUSH1 0x4 MSTORE PUSH1 0x24 PUSH0 REVERT JUMPDEST PUSH0 PUSH2 0xAA0 DUP3 PUSH2 0x737 JUMP JUMPDEST SWAP2 POP PUSH2 0xAAB DUP4 PUSH2 0x737 JUMP JUMPDEST SWAP3 POP DUP3 PUSH2 0xABB JUMPI PUSH2 0xABA PUSH2 0xA69 JUMP JUMPDEST JUMPDEST DUP3 DUP3 DIV SWAP1 POP SWAP3 SWAP2 POP POP JUMP JUMPDEST PUSH0 PUSH10 0xFFFFFFFFFFFFFFFFFFFF DUP3 AND SWAP1 POP SWAP2 SWAP1 POP JUMP JUMPDEST PUSH2 0xAE4 DUP2 PUSH2 0xAC6 JUMP JUMPDEST DUP2 EQ PUSH2 0xAEE JUMPI PUSH0 DUP1 REVERT JUMPDEST POP JUMP JUMPDEST PUSH0 DUP2 MLOAD SWAP1 POP PUSH2 0xAFF DUP2 PUSH2 0xADB JUMP JUMPDEST SWAP3 SWAP2 POP POP JUMP JUMPDEST PUSH0 DUP2 SWAP1 POP SWAP2 SWAP1 POP JUMP JUMPDEST PUSH2 0xB17 DUP2 PUSH2 0xB05 JUMP JUMPDEST DUP2 EQ PUSH2 0xB21 JUMPI PUSH0 DUP1 REVERT JUMPDEST POP JUMP JUMPDEST PUSH0 DUP2 MLOAD SWAP1 POP PUSH2 0xB32 DUP2 PUSH2 0xB0E JUMP JUMPDEST SWAP3 SWAP2 POP POP JUMP JUMPDEST PUSH0 DUP2 MLOAD SWAP1 POP PUSH2 0xB46 DUP2 PUSH2 0x790 JUMP JUMPDEST SWAP3 SWAP2 POP POP JUMP JUMPDEST PUSH0 DUP1 PUSH0 DUP1 PUSH0 PUSH1 0xA0 DUP7 DUP9 SUB SLT ISZERO PUSH2 0xB65 JUMPI PUSH2 0xB64 PUSH2 0x6AE JUMP JUMPDEST JUMPDEST PUSH0 PUSH2 0xB72 DUP9 DUP3 DUP10 ADD PUSH2 0xAF1 JUMP JUMPDEST SWAP6 POP POP PUSH1 0x20 PUSH2 0xB83 DUP9 DUP3 DUP10 ADD PUSH2 0xB24 JUMP JUMPDEST SWAP5 POP POP PUSH1 0x40 PUSH2 0xB94 DUP9 DUP3 DUP10 ADD PUSH2 0xB38 JUMP JUMPDEST SWAP4 POP POP PUSH1 0x60 PUSH2 0xBA5 DUP9 DUP3 DUP10 ADD PUSH2 0xB38 JUMP JUMPDEST SWAP3 POP POP PUSH1 0x80 PUSH2 0xBB6 DUP9 DUP3 DUP10 ADD PUSH2 0xAF1 JUMP JUMPDEST SWAP2 POP POP SWAP3 SWAP6 POP SWAP3 SWAP6 SWAP1 SWAP4 POP JUMP JUMPDEST PUSH0 PUSH2 0xBCD DUP3 PUSH2 0xB05 JUMP JUMPDEST SWAP2 POP PUSH2 0xBD8 DUP4 PUSH2 0xB05 JUMP JUMPDEST SWAP3 POP DUP3 DUP3 MUL PUSH2 0xBE6 DUP2 PUSH2 0xB05 JUMP JUMPDEST SWAP2 POP PUSH32 0x8000000000000000000000000000000000000000000000000000000000000000 DUP5 EQ PUSH0 DUP5 SLT AND ISZERO PUSH2 0xC1D JUMPI PUSH2 0xC1C PUSH2 0x9C8 JUMP JUMPDEST JUMPDEST DUP3 DUP3 SDIV DUP5 EQ DUP4 ISZERO OR PUSH2 0xC32 JUMPI PUSH2 0xC31 PUSH2 0x9C8 JUMP JUMPDEST JUMPDEST POP SWAP3 SWAP2 POP POP JUMP INVALID LOG2 PUSH5 0x6970667358 0x22 SLT KECCAK256 MULMOD 0xB6 0xE2 MULMOD DUP5 PUSH10 0xD8477A54D80AA840B8AA 0xB5 BYTE 0x29 PUSH9 0x3FFA53B28542CAC67A PUSH30 0x1A9E64736F6C634300081A00330000000000000000000000000000000000 "
				},
				"gasEstimates": {
					"creation": {
						"codeDepositCost": "636600",
						"executionCost": "47039",
						"totalCost": "683639"
					},
					"external": {
						"addressToAmountFunded(address)": "2801",
						"fund()": "infinite",
						"funders(uint256)": "5032",
						"minUsd()": "2447",
						"owner()": "2552",
						"withdraw()": "infinite"
					}
				},
				"methodIdentifiers": {
					"addressToAmountFunded(address)": "3e47d6f3",
					"fund()": "b60d4288",
					"funders(uint256)": "dc0d3dff",
					"minUsd()": "51b80e41",
					"owner()": "8da5cb5b",
					"withdraw()": "3ccfd60b"
				}
			},
			"storageLayout": {
				"storage": [
					{
						"astId": 56,
						"contract": "contracts/FundMe.sol:FundMe",
						"label": "addressToAmountFunded",
						"offset": 0,
						"slot": "0",
						"type": "t_mapping(t_address,t_uint256)"
					},
					{
						"astId": 59,
						"contract": "contracts/FundMe.sol:FundMe",
						"label": "funders",
						"offset": 0,
						"slot": "1",
						"type": "t_array(t_address)dyn_storage"
					},
					{
						"astId": 62,
						"contract": "contracts/FundMe.sol:FundMe",
						"label": "minUsd",
						"offset": 0,
						"slot": "2",
						"type": "t_uint256"
					},
					{
						"astId": 98,
						"contract": "contracts/FundMe.sol:FundMe",
						"label": "owner",
						"offset": 0,
						"slot": "3",
						"type": "t_address"
					}
				],
				"types": {
					"t_address": {
						"encoding": "inplace",
						"label": "address",
						"numberOfBytes": "20"
					},
					"t_array(t_address)dyn_storage": {
						"base": "t_address",
						"encoding": "dynamic_array",
						"label": "address[]",
						"numberOfBytes": "32"
					},
					"t_mapping(t_address,t_uint256)": {
						"encoding": "mapping",
						"key": "t_address",
						"label": "mapping(address => uint256)",
						"numberOfBytes": "32",
						"value": "t_uint256"
					},
					"t_uint256": {
						"encoding": "inplace",
						"label": "uint256",
						"numberOfBytes": "32"
					}
				}
			},
			"userdoc": {
				"kind": "user",
				"methods": {},
				"version": 1
			}
		}
	}
}